:020000040802F0
:100000008034002465AB020879A902087BA90208A4
:100010007DA902087FA9020881A90208000000004A
:1000200000000000000000000000000083A902089A
:1000300085A902080000000087A9020889A9020812
:1000400085AB020889AB02088DAB020891AB0208B0
:1000500095AB020899AB02089DAB0208A1AB020860
:10006000A5AB0208A9AB0208ADAB0208B1AB020810
:10007000B5AB020897A902089DA90208B9AB02080E
:10008000BDAB0208C1AB0208C5AB0208C9AB020890
:10009000CDAB0208D1AB0208D5AB0208D9AB020840
:1000A000DDAB0208E1AB0208E5AB0208E9AB0208F0
:1000B000EDAB0208F1AB0208F5AB0208F9AB0208A0
:1000C000FDAB020801AC020805AC020809AC02084D
:1000D0000DAC020811AC0208A3A9020815AC020875
:1000E00019AC02081DAC02080000000021AC020897
:1000F00025AC020829AC02082DAC020831AC02087C
:1001000035AC020839AC02083DAC020841AC02082B
:1001100045AC020849AC02084DAC020851AC0208DB
:1001200055AC020859AC02085DAC020861AC02088B
:1001300065AC020869AC02086DAC020871AC02083B
:1001400000000000000000000000000000000000AF
:1001500075AC020879AC02087DAC020881AC0208DB
:1001600085AC020889AC02088DAC020891AC02088B
:1001700095AC020899AC02089DAC02080000000092
:10018000A1AC0208A5AC0208A9AC0208ADAC0208FB
:10019000B1AC0208B5AC0208B9AC0208BDAC0208AB
:1001A000C1AC0208C5AC0208C9AC0208CDAC02085B
:1001B000D1AC0208D5AC0208D9AC0208DDAC02080B
:1001C000E1AC0208E5AC0208E9AC0208EDAC0208BB
:1001D000F1AC0208B7A90208F5AC0208F9AC0208B4
:1001E000FDAC020801AD020805AD020809AD020828
:1001F0000DAD020811AD020815AD020819AD0208D7
:100200001DAD020821AD020825AD020829AD020886
:100210002DAD020831AD020835AD020839AD020836
:100220003DAD020841AD020845AD020800000000E6
:1002300049AD02084DAD02080000000051AD0208B2
:1002400055AD020859AD02085DAD020861AD020866
:1002500065AD020869AD02086DAD020871AD020816
:1002600075AD020879AD02087DAD020881AD0208C6
:1002700085AD020889AD02088DAD020800000000BE
:1002800091AD020895AD020899AD0208000000008A
:10029000000000009DAD02082DE9F84F044601F072
:1002A000F5FB002C00F0E2802368DFF858B6DFF899
:1002B00058A604F13405DFF85466DFF854765B4540
:1002C000DFF85086DFF8509618BF53452FD04B45C6
:1002D00018BF43452BD0BB4218BFB34227D0DFF82D
:1002E0003C168B421CBFDFF8382693421FD0DFF844
:1002F00034168B421CBFDFF830168B4217D0DFF864
:100300002C2693421CBFDFF828168B420FD0DFF853
:1003100024168B421CBFDFF82026934207D0DFF85B
:100320001C168B421CBFDFF818168B4249D10022E5
:1003300002215B452A70697018BF53452FD04B4589
:1003400018BF43452BD0BB4218BFB34227D0DFF8BC
:10035000CC158B421CBFDFF8C82593421FD0DFF8B5
:10036000C4158B421CBFDFF8C0158B4217D0DFF8D5
:10037000BC2593421CBFDFF8B8158B420FD0DFF8C5
:10038000B4158B421CBFDFF8B025934207D0DFF8CD
:10039000AC158B421CBFDFF8A8158B423ED11A6802
:1003A000520852001A60009023681868C10740F193
:1003B000F88001F06BFB009A801A0628F4D3202005
:1003C00051E0DFF8800583421CBFDFF87C158B42CB
:1003D00017D0DFF8782593421CBFDFF874058342FD
:1003E0000FD0DFF870158B421CBFDFF86C259342ED
:1003F00007D0DFF8680583421CBFDFF864158B4225
:1004000030D1002202202A706870D3F800C0A068A2
:1004100040286FF3101C2BD110202EE019684908DA
:1004200049001960BFE7B1F5005F0CD1BEF1030FC1
:100430000ED8DFE81EF012000F0012000400B0F129
:10044000C07F05D109E0BEF1020F06D9BEF103015C
:1004500040F0F980C00140F1F6804021012229627C
:1004600001209BE04020286203216970012096E072
:1004700080280CBF4FF48040002040EA0C0CE1685B
:10048000206962690843A1691043226A0143E06957
:1004900008434CEAD00040EA121018602168DFF8E7
:1004A000C404142341182046B1FBF3F39B00AB6254
:1004B00001F0DCF900F0DDF82068584518BF504520
:1004C0004CD0484518BF404548D0B84218BFB0424C
:1004D00044D0DFF8481488421CBFDFF8442490421F
:1004E0003CD0DFF8403498421CBFDFF83C1488420F
:1004F00034D000F002FA1CBFDFF8343498422DD01B
:1005000000F0C2F81CBFDFF83024904226D000F083
:10051000B8F81CBFDFF8281488421FD0DFF8242465
:1005200090421CBFDFF82034984217D0DFF81C142B
:1005300088421CBFDFF8182490420FD0DFF8143433
:1005400098421CBFDFF81014884207D0DFF80C2453
:1005500090421CBFDFF8083498421BD1204601F0BE
:10056000E3F9A068802804BF00216160E96A20796E
:100570000860286B6A6B4260606838B1092805D250
:10058000204601F021FA00F065F803E00021A9639C
:10059000E963296400210122296200206A70BDE814
:1005A000F28F1868DFF8C013E2680140A0680843C2
:1005B00021691043A269014360690843E16910435E
:1005C000626A0143206A042A40EA010C04D1E16A0C
:1005D000206B014341EA0C0CDFF8E8261068000CA0
:1005E0000004B0F1005F11D36068A0F12901062971
:1005F00024BFA0F13F02042A06D3A0F1470102293B
:1006000024BF4F38042801D24CF4801CC3F800C02A
:1006100022685369606ADB0840EAC303042812D1E8
:10062000D4F828E0E06A4EEA030360B1A16900292A
:100630007FF4F9AEBEF1000F18BFBEF1020F3FF418
:1006400009AFFFF4FCAE5361204601F00FF900F052
:1006500008F831E7A96B00200860E86B2A6C42605B
:10066000704795F828203F2102F01F0291408160D9
:10067000704795F82820012102F01F029140416047
:100680007047AE4B98427047AA49884270472DE99F
:10069000F84F044600250CB901202CE104F1340682
:1006A0007057012808BF0220F7D001273770F05794
:1006B000012840F01A810220DFF848927070DFF8BC
:1006C000488235622068DFF850A2484518BF40458F
:1006D00021D050451CBF8F4FB8421CD08C4FB84220
:1006E0001CBF8A4FB84216D08C4FB8421CBF8C4FEB
:1006F000B84210D08B4FB8421CBF8B4FB8420AD0C3
:100700008A4FB8421CBF8A4FB84204D0894FB842C2
:100710001CBF894FB84207687F087F0007602046EA
:1007200000F0DEFF2068484518BF404528D05045FE
:100730001CBF7849884223D0754A90421CBF734B36
:1007400098421DD0754988421CBF754A904217D007
:10075000744B98421CBF7449884211D000F0CDF808
:100760001CBF734B98420BD0FFF78EFF1CBF724A21
:10077000904205D0FFF785FF1CBF714988420CD11C
:10078000026822F01E0242F016020260F06888B190
:100790002068016841F008010BE0026822F00E02B7
:1007A00042F00A020260F06820B12068016841F05E
:1007B0000401016020685B49594A584BDFF84CC17D
:1007C000DFF84CE14845534F18BF404549D05045EC
:1007D00018BFB84245D0704518BF604541D0984217
:1007E00018BF90423DD088421CBFDFF83CB158454D
:1007F00037D0DFF838B158451CBFDFF834B1584561
:100800002FD0DFF830B158451CBFDFF82CB1584568
:1008100027D0DFF828B158451CBFDFF824B1584570
:100820001FD0DFF820B158451CBFDFF81CB1584578
:1008300017D0DFF818B158451CBFDFF814B1584580
:100840000FD0DFF810B158451CBFDFF80CB1584588
:1008500007D0DFF808B158451CBFDFF804B1584590
:1008600011D1F06AD0F800B05FEACB3B05D5D0F8E3
:1008700000B04BF4807BC0F800B0B06B18B10668D4
:1008800046F4807606602068484518BF404522D06F
:10089000504518BFB8421ED0704518BF60451AD0E9
:1008A000984218BF904216D088421CBF1E49884209
:1008B00011D000F022F81CBF1D4B98420BD0FFF75F
:1008C000E3FE1CBF1C4A904205D0FFF7DAFE1CBFB6
:1008D0001B49884204D1026842F00102026009E02B
:1008E000036843F00103036004E035704FF40061D6
:1008F000316201252846BDE8F28F0C4A90427047CC
:100900000000000010000240280002408800024061
:10091000700002405800024040000240A000024027
:10092000B800024010040240280402404004024083
:10093000580402407004024088040240A0040240AF
:10094000B8040240085402581C540258305402584B
:1009500044540258585402586C5402588054025857
:1009600094540258F8ABFDA73F8010FE2DE9F84FD4
:10097000054601F08BF8002D044609D005F1340638
:1009800096F90100022804D08021002231623270E1
:10099000E5E02868DFF894A500F098FE504518BF00
:1009A00048452DD0404518BF584529D000F08AFE53
:1009B0001CBFDFF87C25904222D000F0B0FA1CBFAB
:1009C000DFF8701588421BD000F0ACFA1CBFDFF8CE
:1009D0006835984214D000F099FA1CBFDFF85C2506
:1009E00090420DD000F098FA1CBFDFF854158842F1
:1009F00006D000F08EFA1CBFDFF84835984209D1C6
:100A0000016821F01E0101602868426922F080021D
:100A1000426103E0016821F00E01016028682F683F
:100A2000504518BF48454DD0404518BF584549D09E
:100A300000F048FE1CBFDFF8F824904242D000F0DE
:100A40006EFA1CBFDFF8EC1488423BD000F06AFA63
:100A50001CBFDFF8E434984234D000F057FA1CBFD2
:100A6000DFF8D82490422DD000F056FA1CBFDFF8F2
:100A7000D014884226D000F04CFA1CBFDFF8C434F2
:100A800098421FD0DFF8C01488421CBFDFF8BC2496
:100A9000904217D0DFF8B83498421CBFDFF8B41486
:100AA00088420FD0DFF8B02490421CBFDFF8AC348E
:100AB000984207D0DFF8A81488421CBFDFF8A424AE
:100AC000904204D1F06A016821F4807101602868C5
:100AD000504518BF48452FD0404518BF58452BD02A
:100AE000DFF8842490421CBFDFF84414884223D0EE
:100AF00000F015FA1CBFDFF83C2490421CD0DFF850
:100B00006C1488421CBFDFF83034984214D0FFF7D1
:100B1000F4FE1CBFDFF8241488420DD000F0FCF96D
:100B20001CBFDFF81C24904206D0674988421CBFD6
:100B3000DFF81034984214D1026852085200026063
:100B40003868C10740F1808000F0A0FF001B062834
:100B5000F6D3202000213062032231707270012010
:100B600070E003685B085B000360E9E796F8281013
:100B7000726A012001F01F018840506028685045CA
:100B800018BF48454DD0404518BF584549D000F0E2
:100B900099FD1CBFDFF89823904242D000F0BFF9C6
:100BA0001CBFDFF8901388423BD000F0BBF91CBF9C
:100BB000DFF88433984234D000F0A8F91CBFDFF886
:100BC0007C2390422DD000F0A7F91CBFDFF87013F2
:100BD000884226D000F09DF91CBFDFF868339842A8
:100BE0001FD0DFF8641388421CBFDFF860239042F7
:100BF00017D0DFF85C3398421CBFDFF858138842E7
:100C00000FD0DFF8542390421CBFDFF850339842D6
:100C100007D0DFF84C1388421CBFDFF8482390420E
:100C20000BD1316B706B4860B06B30B1016821F44F
:100C300080710160F26B306C5060002101203170D6
:100C400070700020BDE8F28F2868504518BF4845F5
:100C50002ED0404518BF58452AD000F033FD1CBFA8
:100C6000DFF8CC22904223D000F059F91CBFDFF806
:100C7000C41288421CD000F055F91CBFDFF8B8320E
:100C8000984215D000F042F91CBFDFF8B022904224
:100C90000ED000F041F91CBFDFF8A412884207D043
:100CA00000F037F91CBFDFF89C3298427FF45EAF4A
:100CB00096F82810726A3F2001F01F01884090606A
:100CC0005CE700000010005CA00402402DE9F14F39
:100CD00038B100F1340191F90120022A03D08020BB
:100CE0000862012010E1DFF84492DFF88482066890
:100CF000DFF88002DFF84022DFF87032DFF834429C
:100D0000DFF874524E45DFF828A2DFF85CB2DFF856
:100D10006CC2DFF86CE218BF464525D0764518BF97
:100D2000664521D05E4518BF56451DD0AE4218BF5E
:100D3000A64219D09E4218BF964215D086421CBFCB
:100D4000DFF8F871BE420FD0DFF83872BE421CBF28
:100D5000DFF8EC71BE4207D0DFF82C72BE421CBF38
:100D6000DFF8E071BE4230D104274E454F7018BF06
:100D7000464525D0764518BF664521D05E4518BF4B
:100D800056451DD0AE4218BFA64219D09E4218BF8C
:100D9000964215D086421CBFDFF8A00186420FD0D4
:100DA000DFF8E0118E421CBFDFF89421964207D095
:100DB000DFF8D40186421CBFDFF888118E422CD1A7
:100DC00032685208520032609DE0376827F00E0703
:100DD0003760009E36684E4518BF464522D076459E
:100DE00018BF66451ED05E4518BF56451AD0AE42A4
:100DF00018BFA64216D09E4218BF964212D0864215
:100E00001CBFDFF83871BE420CD0DFF87871BE42EB
:100E10001CBFDFF82C71BE4204E03068400840007F
:100E2000306070E037687F087F003760009E36686A
:100E30004E4518BF464545D0764518BF664541D05A
:100E40005E4518BF56453DD0AE4218BFA64239D0C8
:100E50009E4218BF964235D086421CBFDFF8DC00A8
:100E600086422FD0DFF81C2196421CBFDFF8D0301D
:100E70009E4227D0DFF8100186421CBFDFF8C42055
:100E800096421FD0DFF8C0309E421CBFDFF8BC0086
:100E9000864217D0DFF8B82096421CBFDFF8B43086
:100EA0009E420FD0DFF8B00086421CBFDFF8AC20B6
:100EB000964207D0DFF8A8309E421CBFDFF8A4009E
:100EC000864218D1C86A026822F48072026091F8E2
:100ED00028304A6A012003F01F03984050600B6BD2
:100EE000486B5860886B30B1026822F480720260EF
:100EF000CB6B086C5860002201200A704870C969E9
:100F000009B1009888470020BDE8F28F194988424E
:100F100070471D4A904270471A4B98427047164BD3
:100F200098427047114A90427047000010000240FA
:100F300088000240B80002402804024058040240E1
:100F400088040240B8040240085402581C54025855
:100F50003054025844540258585402586C540258A1
:100F60008054025894540258700002401004024009
:100F70002800024040040240A00002405800024005
:100F80004000024070040240A00402402DE9FE4FE0
:100F90000021DFF8D428019113684FF41655044658
:100FA0000121DFF85CA9B3FBF5F5029504F13405E6
:100FB000686A0823009000F089FB0668D0F800E01A
:100FC0002268524518BF4A4533D0424518BF5A459A
:100FD0002FD0DFF8547ABA421CBFDFF82879BA4222
:100FE00027D0DFF82479BA421CBFDFF82079BA4253
:100FF0001FD0DFF81C79BA421CBFDFF81879BA425B
:1010000017D0DFF8287ABA421CBFDFF80C79BA4251
:101010000FD0DFF80879BA421CBFDFF80479BA4272
:1010200007D0DFF80079BA421CBFDFF8047ABA4271
:1010300044D195F8280000F01F0003FA00F00642A2
:1010400000F09480524518BF4A4533D0424518BF3E
:101050005A452FD0DFF8D00982421CBFDFF8A40820
:10106000824227D0DFF8A00882421CBFDFF89C082C
:1010700082421FD0DFF8980882421CBFDFF8940834
:10108000824217D0DFF8A40982421CBFDFF888082B
:1010900082420FD0DFF8840882421CBFDFF880084C
:1010A000824207D0DFF87C0882421CBFDFF880094B
:1010B000824248D1106800F0040047E0DFF8E86899
:1010C000B2421CBFDFF8E468B24218D0DFF8E07823
:1010D000BA421CBFDFF8DC68B24210D0DFF8D86833
:1010E000B2421CBFDFF8D478BA4208D0DFF8D0682B
:1010F000B2421CBFDFF8CC68B24240F0DD82166815
:1011000095F8287007F01F0C04278DF800C007FA27
:101110000CF7BC461EEA0C0F019700F04C827707D3
:1011200040F14982C0F804C0300440F1FE81F1036F
:1011300000F139826969002900F0BE82204603B0BF
:10114000BDE8F04F0847106800F0080070B1106863
:1011500020F00400106095F82820009802F01F028B
:10116000934083602A6A42F001022A6295F82800BF
:10117000DFF8B47800F01F0026FA00F2D30740D55C
:101180002268524518BF4A4531D0424518BF5A45DA
:101190002DD0BA421CBFDFF86C379A4227D0DFF857
:1011A00068379A421CBFDFF864379A421FD0DFF8D5
:1011B00060379A421CBFDFF85C379A4217D000F0C4
:1011C0007DFA1CBFDFF850379A4210D0DFF84C3759
:1011D0009A421CBFDFF848379A4208D0DFF84437FC
:1011E0009A421CBFDFF848389A4240F09280526918
:1011F000120606D5814000988160296A41F00201FB
:10120000296295F82800042200F01F0002FA00F07D
:1012100006423FD02168514518BF494531D041456C
:1012200018BF59452DD0B9421CBFDFF8D8269142CE
:1012300027D0DFF8D43699421CBFDFF8D026914280
:101240001FD0DFF8CC2691421CBFDFF8C836994288
:1012500017D0DFF8D82791421CBFDFF8BC26914297
:101260000FD0DFF8B83699421CBFDFF8B4269142A0
:1012700007D0DFF8B02691421CBFDFF8B43799429F
:1012800049D109688A0705D5009B9860286A40F013
:101290000400286295F82810102201F01F0102FABC
:1012A00001F10E4256D02068504518BF48452CD059
:1012B000404518BF584528D0B8421CBFDFF8442627
:1012C000904222D0FFF72BFE1CBFDFF84026904251
:1012D0001BD0FFF727FE1CBFDFF83836984214D02A
:1012E000FFF70BFB1CBFDFF8302690420DD0FFF755
:1012F00013FE1CBFDFF82826904206D0FFF709FE38
:101300001CBFDFF82C37984207D1006800F00800B6
:1013100006E0106875E70968BCE7006800F00400A3
:10132000C0B100988160206801684A0307D5006851
:1013300001030BD5696969B1204688470AE0016855
:10134000CA0503D4036823F008030360E96809B100
:101350002046884795F82810202001F01F0100FA48
:1013600001F10E423AD02068504518BF48452DD0B3
:10137000404518BF584529D0B8421CBFDFF8842526
:10138000904223D0FFF7CBFD1CBFDFF88065B04251
:101390001CD0FFF7C7FD1CBFDFF87835984215D089
:1013A000DFF88866B0421CBFDFF86C2590420DD094
:1013B000FFF7B2FD1CBFDFF86865B04206D0FFF74B
:1013C000A8FD1CBFDFF86836984203D1006800F022
:1013D000100002E0006800F00200002848D00098E9
:1013E0008160206895F90110042927D1026822F054
:1013F000160202602068436923F080034361E968B4
:10140000002904BF6869002804D02068016821F021
:101410000801016095F8282000993F2002F01F0282
:10142000904088600020287001226A70E9690029D4
:1014300020D0204603B0BDE8F04F084701684A03BA
:1014400007D5006801030FD4296989B12046884770
:101450000EE00168CA0507D40368012123F01003D8
:101460000360002028706970A96809B12046884788
:10147000286A002800F02081296AC8074FD5042275
:101480006A702068504518BF484531D0404518BFA4
:1014900058452DD0B8421CBFDFF86814884227D0C9
:1014A000DFF8642490421CBFDFF8603498421FD0FC
:1014B000DFF85C1488421CBFDFF85824904217D034
:1014C000DFF8683598421CBFDFF84C1488420FD013
:1014D000DFF8482490421CBFDFF84434984207D01C
:1014E000DFF8401488421CBFDFF84425904217D132
:1014F00003685B085B0003600298019A521C9042EB
:101500000192216802D30A68D307F6D4002028701C
:101510000968CA0759BF0120687003236B70C4E0D3
:101520000168490849000160E6E7B0063BD420683D
:10153000504518BF48452DD0404518BF584529D0C3
:1015400000F0C0F81CBFDFF8BC23904222D0FFF7A8
:10155000E6FC1CBFDFF8B41388421BD0FFF7E2FCA7
:101560001CBFDFF8B033984214D0FFF7CFFC1CBF8C
:10157000DFF8A42390420DD0FFF7CEFC1CBFDFF8AC
:10158000A013884206D0FFF7C4FC1CBFDFF8A034CC
:10159000984204D1016821F00801016003E002686B
:1015A00022F004020260E968002918D0204603B046
:1015B000BDE8F04F08479DF800C0022707FA0CF776
:1015C000BC461EEA0C0F019758D0B70756D5C0F895
:1015D00004C0300409D5F10349D4296900296BD02E
:1015E000204603B0BDE8F04F0847B0063FD420685E
:1015F000504518BF48452DD0404518BF584529D003
:1016000000F060F81CBFDFF8FC22904222D0FFF708
:1016100086FC1CBFDFF8F41288421BD0FFF782FC67
:101620001CBFDFF8F032984214D0FFF76FFC1CBFEC
:10163000DFF8E42290420DD0FFF76EFC1CBFDFF80C
:10164000E012884206D0FFF764FC1CBFDFF8E033ED
:10165000984204D1016821F01401016003E002689E
:1016600022F00A0202600020012128706970A96836
:1016700011B3204603B0BDE8F04F08479DF8007055
:10168000BB401EEA030F17D0330715D5166826F0A6
:101690000E06166095F8282002F01F029140416066
:1016A00001202862002129706870A96921B12046B3
:1016B00003B0BDE8F04F0847BDE8F78FDFF86C33A3
:1016C0009A427047DFF8601388427047DFF86493EE
:1016D000DFF864B3DFF8648370470000406D704743
:1016E0002DE9F84F0446DFF818A2A56DDFF8449302
:1016F00000952668DFF80CB2DFF82CC3DFF838E37A
:10170000DFF83883564518BF4E453FD0464518BFD1
:1017100076453BD0664518BF5E4537D07A4886424D
:101720001CBF7A4FBE4231D0794886421CBF7948EF
:1017300086422BD0DFF8F472BE421CBF7648864248
:1017400024D0764886421CBF754FBE421ED07548D5
:1017500086421CBFDFF8D802864217D0924FBE42A5
:101760001CBF9248864211D0914886421CBF914FBF
:10177000BE420BD0904886421CBF9048864205D09E
:101780008F4FBE421CBFAE48864259D1676EA06ED5
:101790007860E06E10B1206F676F4760564518BFE4
:1017A0004E4525D0464518BF764521D0664518BF21
:1017B0005E451DD0544886421CBF5448864217D00F
:1017C000534886421CBF5348864211D097488642F0
:1017D0001CBF514886420BD0504886421CBF50481F
:1017E000864205D04F4886421CBF9148864213D19D
:1017F00094F85C003F2500F01F008540009885604C
:10180000356825F4802535607360A068402826D0AF
:10181000B160F260BDE8F18F634886421CBF634847
:10182000864210D0624886421CBF624886420AD077
:10183000614886421FBF614886426148864202D0A5
:101840007F488642E6D194F85C00012700F01F0033
:1018500007FA00F068607360A368402BD8D1B260CB
:10186000F160D7E7000000000C000024F0B501682B
:10187000234A91421CBF6F4B994229D06F4CA14221
:101880001CBF6D4A914223D0674B99421CBF1D4C2F
:10189000A1421DD01C4A91421CBF1C4B994217D03B
:1018A0001B4CA1421CBF1B4A914211D05F4B994275
:1018B0001CBF194CA1420BD0184A91421CBF184BB7
:1018C000994205D0174CA1421CBF594A914211D1EF
:1018D00001F0FF03890A103B1824B3FBF4F20FF266
:1018E000A41502F007068902AF5D042AC76503D379
:1018F000091D01E0090A090281650846F0BD0000E2
:101900001000024088000240A0000240B8000240DF
:1019100010040240280402405804024070040240AF
:1019200088040240A00402400122F0B51E4D046864
:10193000AC421CBF1D4EB442234611D01C4FBC42CA
:101940001CBF1C4DAC420BD01B4EB4421CBF1B4FE6
:10195000BC4205D01A4DAC421CBF1A4EB4420DD148
:1019600004F0FF0108391423364DB1FBF3F1364B77
:1019700003EB810301F01F018A4011E004F0FF0135
:1019800010391824314DB1FBF4F43149CB18A92B8F
:10199000304B38BF083403EB840304F01F04A2402B
:1019A000826645660366F0BD085402581C5402580E
:1019B0003054025844540258585402586C54025837
:1019C00080540258945402580179002900D170477C
:1019D0000929F0B527D202681F4B9A421CBF1F4D40
:1019E000AA4211D01E4EB2421CBF1E4B9A420BD0CF
:1019F0001D4DAA421CBF1D4EB24205D01C4FBA421B
:101A00001CBF0F4DAA4204D11A4B1B4A03EB8104A1
:101A100003E01A4A02EB8104194A0123491E8B4054
:101A20000267C4664367F0BD700002404004024094
:101A3000B804024028000240580002404000024022
:101A400094540258805802580058025880080240A6
:101A5000F0FBFDBF00080240085402581C54025815
:101A60003054025844540258585402586C54025886
:101A700080540258FC58025840590258FC08024051
:101A80004009024000061016000610160148406882
:101A9000704700BF0000002400F5E070026891422A
:101AA00003D343681A44914202D380680028F5D1D9
:101AB0007047DFF80817086890B94FF48050486005
:101AC0004FF480324FF0FF30C86008610420DFF827
:101AD000F0368A604861C3F8BC01DFF8E8060860A8
:101AE0000120704701F1080313F0070F0EBF002318
:101AF000C3F1080303F007031944D21A8161C260DD
:101B000042F001034B60091D4FF0280C41F802C060
:101B1000DFF8A8261369C36170472DE9FC4B07461F
:101B200001F1080010F0070F0FBF8946C0F108004F
:101B300000F0070001EB000902F1080111F0070FA6
:101B400006D002F10800C0F1080000F007000244CE
:101B50001546A5EB090009EB0306A0EB030B43F0C8
:101B60000303C9F80430AE4228BF00F073FF2879A0
:101B7000C10758BF00F06EFFBBF1100F38BF00F077
:101B800069FFB869854208D1F9688B44C7F80CB081
:101B9000BE614BF00100706051E1786985420AD165
:101BA000B9688B44C7F808B07E614BF001007060E3
:101BB00046F80BB043E1686800F00301012940F0EA
:101BC000AC80C008C0000190C0081F2839D8AC689C
:101BD000D5F80C800090454508BF00F03BFFA542BA
:101BE00008BF00F037FF68680099C008C000B0EB7C
:101BF000C10F18BF00F02EFF009907F1280000EB7D
:101C0000C100844206D039698C42C0F08180E2680C
:101C1000AA427DD1A04506D10098396801238340AE
:101C20009943396076E0804506D0396988456FD39D
:101C3000D8F80800A8426BD1C4F80C80C8F8084056
:101C400068E0EC68D5F81880AC420CD0A868396917
:101C5000884223D3C268AA4204BFA168A9421DD109
:101C6000C460A0601CE005F114010C6834B905F1F2
:101C700010010C68A4B101E011460C6804F11402D3
:101C80001068002802BF04F1100210680028F3D188
:101C90003869814202D300220A6001E000F0DAFED6
:101CA000B8F1000F36D0E96907F5987000EB8100B4
:101CB0000268954208D10460A4B9E86979680122F4
:101CC00082409143796025E03869804508D3D8F88F
:101CD0001010A94214BFC8F81440C8F8104001E021
:101CE00000F0B8FEB4B139698C4211D3C4F8188041
:101CF000286928B1884226BF2061846100F0AAFECD
:101D0000686938B13969884202D36061846101E051
:101D100000F0A0FE01996D188B44696849084900DC
:101D200069604BF0010070604FEADB0446F80BB0CD
:101D30001F2C23D807F1280000EBC4084546BBF14F
:101D4000100F38BF00F086FE386820FA04F1CA0789
:101D500005D4012101FA04F404433C6007E0D8F8FB
:101D60000800396988422CBF054600F073FEC8F8A8
:101D70000860EE60B560C6F80C8060E05FEA1B208A
:101D800008BF002123D0B0F5803F28BF1F211ED2FD
:101D9000A0F58072120C02F008029040A0F580516C
:101DA000090C01F004018840A0F580431B0CC2F12E
:101DB0000E0203F00203521AD21A984002EBD032FC
:101DC000D01D2BFA00F101F0010101EB4201F1619C
:101DD000002307F59872736102EB810033617A6822
:101DE00022FA01F3DC0707D4012303FA01F11143BE
:101DF00079600660B0611DE002681F291DBF4908B7
:101E0000C1F119010BFA01F1594600E00246506890
:101E1000C008C000584516D002F11003C80F03EBEC
:101E20008003490018680028F0D13869834204D340
:101E30001E60B261F660B66001E000F00BFE09F1D1
:101E40000800BDE8F68B396990688A4228BF88424D
:101E5000F3D3C6609660B060F2600020B061EEE738
:101E60002DE9FE4F04468B46A5692E4690469946BD
:101E70003146FFF711FE0268416802EB010AAAF140
:101E8000270111F007000EBF0021C1F1080101F088
:101E900007010AEB0100A0F12F0706F110018F42A4
:101EA00038BF374607F11802002101920091A8F1CE
:101EB000280259462046FFF715FE07F1080010F0EA
:101EC000070F18BF00F0C6FD1B20786007F108015E
:101ED00004F5E07090E80C5081E80C50C0F800B0B8
:101EE000C0F80480C0F80C90816007220198009926
:101EF00000E0001D491C00F1080353454260F8D37F
:101F00000129D8BF00F0A6FDB74200F09580BF1BA5
:101F1000301D321DC15949084900D15147F0010017
:101F200070604FEAD70BF751BBF11F0F21D804EBBC
:101F3000CB0000F12805A846102F38BF00F08AFD1D
:101F4000206820FA0BF1CA0705D4012101FA0BF130
:101F50000843206006E0A868216988422CBF8046BB
:101F600000F078FDAE60C8F80C60C6F80880F56037
:101F70006FE0380A08BF002123D0B0F5803F28BFAA
:101F80001F211ED2A0F58072120C02F008029040B0
:101F9000A0F58051090C01F004018840A0F58043B0
:101FA0001B0CC2F10E0203F00203521AD21A98401F
:101FB00002EBD032D01D27FA00F101F0010101EB54
:101FC000420104EB8102002302F59870F161736114
:101FD0003361626822FA01F3DB0707D4012303FAB5
:101FE00001F1114361600660B0611DE002681F29C4
:101FF0001DBF4908C1F1190107FA01F1394600E096
:1020000002465068C008C000B84216D002F1100362
:10201000C80F03EB8003490018680028F0D120693D
:10202000834204D31E60B261F660B56011E003B074
:10203000BDE8F04F00F00EBD0BE0216990688A42C8
:1020400028BF8842F3D3C6609560B060F26000207C
:10205000B06103B0BDE8F08F2DE9F041574F054660
:102060003868884608B9FFF724FDB96801EB080015
:102070002F30491E20EA010188457DD205F5D8762A
:10208000B06828B1326889188A4275D2884273D301
:1020900000F020FD01001CBF0C6811F1010F6BD096
:1020A0003068201805F5D87230605368984238BF00
:1020B00018467060A86960BB286908B1814200D2E7
:1020C0002961316174610020F0614FF0FF303A689E
:1020D0006A62286205F128020020D260926002F153
:1020E000080757611761801C10322028F5D3344847
:1020F000854208BFA4F1280228D055F8040CC00876
:1021000005EBC002A2F108000A19121A283A01468A
:102110001CE005F5E070024600E092687AB31368AF
:1021200057681F44B942F8D1137B1F0727D4AB6906
:102130001768BB4223D3D2F804C06744BB421ED207
:10214000A444C2F804C0E868A96922182846FFF729
:10215000C9FC1FE08068C0B103689342FAD1027BDA
:10216000130712D4026801604368E41844604346D0
:102170002846BDE8F041D0E40020BDE8F0812A699E
:10218000914238BF29610A19E5E700232246284613
:10219000FFF766FEE8688045EED2A0EB0800A9696B
:1021A000E86001EB0802AA6140F00100506048F0CD
:1021B0000300486001F10800BDE8F0812814002404
:1021C000640E00246859883C2DE9F84F00258946A3
:1021D000090AC9F1000B08BF002323D0B1F5803FE5
:1021E00028BF1F231ED2A1F58072120C02F0080234
:1021F0009140A1F580531B0C03F004039940A1F515
:102200008044240CC2F10E0204F00204D21A121B04
:10221000A14002EBD132D11D29FA01F303F00103F1
:1022200003EB4203074607F5987858F8230030B3CC
:102230001F2B0FBF4C465C08C4F1190409FA04F4C3
:10224000AC46594600E064004268D208D200A2EBD6
:1022500009028A4203D21100054600F069814269F1
:1022600010304FEAD47B50F82B00002A1CBF82426A
:1022700094460028E7D18B466046B0BBBDBB012227
:1022800002FA03F35B005842796803430B4000F005
:102290004E81584203405B1E180B00F01000C340F3
:1022A000590901F00801CB409A0802F00402D3401A
:1022B0005C0804F002040818E3401018C3F3400659
:1022C00020183044F3401B1858F823000DE008464E
:1022D0004168C908C900A1EB090159453CBF8B46BB
:1022E000054601690029F2D140690028F0D1002D8E
:1022F00000F01D81B868A0EB0900834580F01781CC
:1023000039698D42C0F011816868C008C00009EBCE
:102310000B01884218BF00F09DFB05EB0906B54292
:1023200080F00381EC68D5F818A0AC420CD0A86806
:102330003969884223D3C268AA4204BFA168A9426E
:102340001DD1C460A0601CE005F114010C6834B913
:1023500005F110010C68A4B101E011460C6804F10C
:1023600014021068002802BF04F11002106800284F
:10237000F3D13869814202D300220A6001E000F003
:1023800069FBBAF1000F36D0E86908EB80000168FC
:102390008D4209D10460200014D1E86979680122D6
:1023A00082409143796026E03869824508D3DAF8A3
:1023B0001010A94214BFCAF81440CAF8104001E036
:1023C00000F048FBBCB13869844212D3C4F818A0AD
:1023D000286930B13969884226BF2061846100F0E4
:1023E00039FB686938B13969884202D36061846118
:1023F00001E000F02FFBBBF1100F0CD2D94449F0E3
:102400000300291D6860281D51F8092042F00102CF
:1024100040F8092088E049F0030068604BF00100B3
:1024200070604FEADB0046F80BB01F281DD807EBA1
:10243000C00101F12804396821FA00F2D307A3464C
:1024400005D4012202FA00F00843386006E0A068D3
:10245000396988422CBF834600F0FCFAA660CBF8AD
:102460000C60C6F808B0F4605EE05FEA1B2008BFAD
:10247000002123D0B0F5803F28BF1F211ED2A0F538
:102480008072120C02F008029040A0F58051090CF5
:1024900001F004018840A0F580431B0CC2F10E023C
:1024A00003F00203521AD21A984002EBD032D01D28
:1024B0002BFA00F101F0010101EB4201F161002270
:1024C0007261326108EB81007A6822FA01F4E30755
:1024D00007D4012404FA01F1114379600660B06168
:1024E0001DE002681F291DBF4908C1F119010BFA3F
:1024F00001F1594600E002465068C008C000584546
:1025000018D002F11003C80F03EB800349001868CC
:102510000028F0D13869834204D31E60B261F660AE
:10252000B66001E000F096FA14E100F093FA0EE1D3
:102530008B46A2E6396990688A4228BF8842F1D367
:10254000C6609660B060F2600020B061ECE72DE9F3
:10255000F84F06468846716848420140491E080BFC
:1025600000F01000C1404A0902F00802D1408B0877
:1025700003F00403D9404D0805F002051018E940A6
:102580001818C1F34004281806F5987A2044E14051
:1025900009185AF821104868C008C0000D46A0EB81
:1025A000080909E001464868C008C000A0EB08001F
:1025B00048453CBF81460D4608690028F2D149696B
:1025C0000029F0D130698542C0F0BF806968C90830
:1025D00008EB090BC900594518BF00F03BFA05EBA1
:1025E00008008542009080F0B080EF68AC69AF428F
:1025F0000CD0A8683169884223D3C268AA4204BFBC
:10260000B968A9421DD1C760B8601CE005F114018A
:102610000F6837B905F110010F68A7B101E0114645
:102620000F6807F114021068002802BF07F11002BA
:1026300010680028F3D13069814202D300220A6079
:1026400001E000F007FA002C31D0E8690AEB8000C5
:1026500001688D4208D107608FB9E869716801226D
:1026600082409143716022E03069844205D3216940
:10267000A94214BF6761276101E000F0EBF9B7B12F
:102680003069874211D3BC61286930B13169884211
:1026900026BF3861876100F0DDF9686938B13169BA
:1026A000884202D37861876101E000F0D3F9B9F183
:1026B000100F0BD24BF00300291D6860281D51F844
:1026C0000B2042F0010240F80B203DE048F00301EE
:1026D0002A1D696049F0010042F80800009941F89C
:1026E0000990D6F808804FEAD80BBBF1200F28BF1D
:1026F00000F0B0F9B8F1000F22D006EBCB007769FB
:1027000000F12804A246B8F1100F38BF00F0A2F97A
:10271000306820FA0BF1CA0705D4012101FA0BF148
:102720000843306006E0A068316988422CBF8246C9
:1027300000F090F9A760CAF80C70C7F808A0FC6018
:10274000C6F808900098706104E000F083F900205A
:10275000BDE8F28F05F10800BDE8F28F2DE9FE4FCC
:102760000546AFF30080F52DDFF8E46280F00481C8
:102770000B2D31BF10250B35ED08ED003068EC084E
:10278000E04010F0030F46D0C04300F001000419F0
:1027900006F1280000EBC408E700D8F80850686884
:1027A000C008C000B84218BF00F054F9D5F808902E
:1027B000454508BF00F04EF94D4508BF00F04AF905
:1027C0006868C008C000B84218BF00F043F9C845A7
:1027D00007D13068012101FA04F420EA04043460CE
:1027E0000DE03069814508D3D9F80C10A94204D115
:1027F000C8F80890C9F80C8001E000F02BF947F008
:102800000300291D6860281DCA5942F00102C25107
:1028100005F10804F8E0B168A94280F0BE80002804
:1028200000F0A1804FF0010808FA04F1490000FA15
:1028300004F4484201430C4060420440641E200BF3
:1028400000F01000C440610901F00801CC40A2086A
:1028500002F00402D440630803F002030818DC40CD
:102860001018C4F3400718183818FC40241806F153
:10287000280000EBC40AE700DAF80890D9F8040051
:10288000C008C000B84218BF00F0E4F8D9F808B09A
:10289000D14508BF00F0DEF8D94508BF00F0DAF8EE
:1028A000D9F80400C008C000B84218BF00F0D2F840
:1028B000DA4506D1306808FA04F420EA04043460EA
:1028C0000DE031698B4508D3DBF80C00484504D195
:1028D000CAF808B0CBF80CA001E000F0BBF87F1BF1
:1028E00045F0030009F10402C9F8040047F00101B2
:1028F000515109EB05020192D751B4684FEAD40A4D
:10290000BAF1200F28BF00F0A5F834B3CDF800A02D
:1029100006F12800756900EBCA0AD346102C38BFAF
:1029200000F098F83168009821FA00F2D30704D437
:1029300008FA00F00843306007E0DAF8080031696F
:1029400088422CBF834600F085F8CAF80850CBF8BF
:102950000C50C5F808B0C5F80CA0B76009F1080420
:102960000198706150E07068C0B329463046FFF7A7
:10297000EEFD040011D047E015F1400F28BF4FF0E5
:10298000FF350AD20B35ED087068ED0028B12946F5
:102990003046FFF719FC040036D1B068A8421DD3B9
:1029A000411B726910290AD350197061B16041F05E
:1029B00001034360415045F0030555600BE00021E1
:1029C000B1607161131D40F003015160111D1C586D
:1029D00044F001040C5002F1080415E0F06885424F
:1029E0000DD2401BB169F0604A19B26140F001009C
:1029F000506045F003054D6001F1080404E02946EC
:102A00003046FFF729FB0446AFF300802046FFF76E
:102A100020BB38B5002558B141EA0002120C01FB79
:102A200000F512041EBFB5FBF0F088424FF0FF35F1
:102A30002846FFF793FE04001CBF14F8040C10F0A6
:102A4000030F03D02946204600F05AF8204632BD35
:102A5000640E0024012000F073B8F0B40246106840
:102A600095681318506803EB5004C0071DD54D44FA
:102A70001BE013F8017B05F8017B491EF9D1A0B1D9
:102A8000B60813F8011B06F00306032E08BF13F85F
:102A9000016B01EB06214942801C294405D011F845
:102AA000016B05F8016B401EF9D1A3420ED013F85B
:102AB000016B16F0030104BF13F8011BC91C300998
:102AC0000F28DAD113F8010B0F30D6E7F0BC02F172
:102AD0000C0070470749086808B100207047064895
:102AE000C008C00008600549C908C900091A01608A
:102AF000704700BF701400248734002480440024F1
:102B0000002200F027B830B4002513E050F8042B61
:102B1000D30744BFA9F101039A18091F042942F8F9
:102B2000045BFAD213468C0744BF15809B1CC9076F
:102B300048BF1D7050F8041B0029E7D130BC704716
:102B400080B500F011F8024A11001820ABBEFBE777
:102B5000260002004018491C1CBFB1F1010100F819
:102B6000012DF9D17047000080B500F015F8020082
:102B70000023DB431068984204D011000220ABBE52
:102B8000002010605068984204D0111D0220ABBE96
:102B90000020506001BD00000148704700000000A7
:102BA000640100242DE9F0439FB000BF65A6269C78
:102BB000DFF8B48A8DF83B40029100240B944FF06B
:102BC000FF37044691461D460AE019F8011B02989A
:102BD000A0470028029000F0A1800B98401C0B90A9
:102BE00099F8000050B12528EFD10021002205916D
:102BF00006920791089209910A9203E00B98A5E0CA
:102C000041F0010119F8010F2028F9D023280CD038
:102C10002B2804D02D2805D0302809D080E041F0A1
:102C20000201EFE741F00401ECE741F00801E9E7B8
:102C300041F01001E6E70D920AE00D98404505DAF3
:102C400000EB800002EB4002303A0D9209F10109DD
:102C500099F80020A2F130000A28EED399F800007C
:102C60002E2818BF0C9726D119F8010F2A2808D151
:102C70002868286009F1010950F8042B28600C929B
:102C800019E02D280CBF09F10109002000220C9247
:102C90000BE040B90C9A424505DA02EB820203EBE5
:102CA0004203303B0C9309F1010999F80030A3F17C
:102CB00030020A2AEDD3ADF83810304699F80010EA
:102CC00000F06AFE08B119F8010B8DF83A009DF882
:102CD0003A00682805D199F8000068280CD16221D3
:102CE00006E06C2804BF99F800006C2804D171211B
:102CF0008DF83A1009F1010910A804902A4619F834
:102D0000013B6946204600F061F838B910AA6946CF
:102D1000204600F08FF900287FF562AF384615E0B5
:102D20002A2888D12A682A6052F8040B2A600028D1
:102D30000D9003D540420D9041F0040109F10109C5
:102D40008CE70000686A6C747A4C00001FB0BDE824
:102D5000F083622820D0682811D06A2803D06C281C
:102D600027D0712825D10868C01D20F00700086011
:102D7000D0E9002308300860194610467047002A41
:102D80000A680A60106803D0121D0A6000B217E0DA
:102D9000121D0A6080B217E0002A0A680A601068F3
:102DA00003D0121D0A6040B20AE0121D0A60C0B2D0
:102DB0000AE0002A0A680A60106803D0121D0A603F
:102DC000C1177047121D0A600021704770B51C467C
:102DD0000D46B4F125002E69114600F019811C380A
:102DE00068D0001F022865D9133842D0093861D055
:102DF000801E16D0401E1ED0401E02285AD9001F29
:102E000019D0401F00F08180401E32D0401E00F0DB
:102E1000CB80C01E00F0DA80801E2AD0C01E28D0D1
:102E2000FCE06869421C6A610A680A6052F8043B67
:102E30000A603354FCE095F83A000122FFF789FF5D
:102E4000C5E90001002904D56869411C69612D228A
:102E50000DE0288F810704D56869411C69612B2228
:102E600005E0C00721D56869411C69612022325400
:102E70001BE095F83A000022FFF76BFFC5E900015F
:102E800095F83800010710D5D5E90023002B08BFBD
:102E9000002A0AD044F02000782806D16869302141
:102EA0003154401C421C6A613454214668693044E4
:102EB000E86087E00868C01D20F007000860D0E9DE
:102EC000002308300860C5E90023D5E90001C80FD8
:102ED00004D06869411C69612D220DE0288F8107AB
:102EE00004D56869411C69612B2205E0C00704D53F
:102EF0006869411C69612022325468693044E86085
:102F00002146284600F0C4F992E005F13A025078D3
:102F100020B14FF0FF340FF6202062E010786228D5
:102F200008D0682824D06A2812D06C282ED07128A6
:102F30000ED02BE00A680A6052F8040B0A6020B930
:102F40004FF0FF340FF608204BE0E96A01706FE0A4
:102F50000A680A6052F8040B0A6020B94FF0FF3487
:102F60000FF6EC103DE0EA6AD317C0E900235FE0FA
:102F70000A680A6052F8040B0A6020B94FF0FF3467
:102F80000FF6CC102DE0E96A018051E00A680A6072
:102F900052F8040B0A6020B94FF0FF340FF6B0105E
:102FA0001FE0E96A016043E00A680A6052F8040B16
:102FB0000A60002120F0000221F0FF33C5E9002360
:102FC000EE607821284600F0BBF831E00868086020
:102FD00050F8044B0860EC603CB94FF0FF340FF63A
:102FE000881000F0E5FC201A70BD2E6B002E04D571
:102FF000204600F0FDFC044608E032460021204651
:1030000000F000FD002814BF041B3446AC610FE043
:103010006869411C69612522325409E06969481CCC
:10302000686125227254210002D0431C6B61345424
:10303000002070BD2DE9FC410F46064690467A6B94
:103040007869396ABC6A121AB869521A796A121A0E
:10305000F869521A121A97F83800141B41070FD456
:103060002020002C8DF800000ADD254601236A4649
:103070003946304600F048FC00285DD16D1EF5D180
:103080007B6942463946304600F03EFC002853D169
:1030900030208DF800003D6A002D09DD01236A46CD
:1030A0003946304600F030FC002845D16D1EF5D180
:1030B000BB69FA683946304600F026FC00283BD14F
:1030C00030208DF800007D6A002D08DD01236A465E
:1030D0003946304600F018FC70BB6D1EF6D1F8681A
:1030E000B969FB6942183946304600F00DFC18BB3F
:1030F00030208DF80000BD6A002D08DD01236A46EE
:103100003946304600F000FCB0B96D1EF6D197F894
:10311000380041070DD52020002C8DF8000008DD77
:1031200001236A463946304600F0EEFB20B9641EA2
:10313000F6D10020BDE8F6814FF0FF30BDE8F68102
:103140002DE9FC4307466F293E6908BF082405D0D6
:1031500041F02000782814BF0A2410243C25D7E928
:103160000023642918BF69299046994605D1002B90
:1031700003D5D8F1000869EB4909B9F1000F08BF80
:10318000B8F1000F1FD1386BE8B9082C4CD197F873
:103190003800010748D530203B2586F83B0043E046
:1031A00000280ED597F8380000F01400102808D138
:1031B0007B6B7969386A5B1A1B1A9A1A002AC8BF96
:1031C0003A62BDE8F3838DF8001040464946224636
:1031D000E31700F043FC3032D0B26D1E3A2801955F
:1031E00004DB9DF80000A0F151018A187255404699
:1031F00049462246E31700F031FC80465FEA0109A8
:1032000008BFB8F1000F03D0F86871198842DCD309
:10321000082C09D197F83800010705D5705D3028D2
:1032200002D06D1E30207055C5F13C02BA61711993
:10323000F960386B8242B3DA821A3A624FF6EF7065
:10324000398F01403987BDE8F3832DE9D043064625
:103250000F4614464FF00008DFF8109412E0E00724
:1032600007D542464B463046394600F07AFC0646C2
:103270000F464046494642464B4600F072FC6410F9
:1032800080468946002CEAD130463946BDE8D083D5
:103290002DE9F84F05468A464AF020048EB0D5E95C
:1032A0000089612C02AE09D0286B002848BF062097
:1032B00003D408BF672C01D101202863D5E90001A0
:1032C0004A005215521C0DD10B030BD0AAF161011B
:1032D00003201A29A86102D20FF2A86110E00FF2B0
:1032E000A8610DE04A005215521C0ED10B030CD1FF
:1032F000AAF1610103201A29A86116D30FF2906187
:10330000E868032200F036FCC0E1CDE90C01DDE9FC
:103310000C2323F00043B3F5801F0DD20027002BB0
:1033200008BF002A019703D111E00FF26061E7E7BF
:1033300001AA00F02BFC0AE0CD48CE4900EB135067
:10334000DDE90C2301900B40CB4910461943C5E938
:103350000001612C0DD1E86830210170821CBAF1A6
:10336000610FEA600CBF7821582141706869801CA8
:103370006861D5E90001CDE90C01DDE90C2333F0EA
:10338000004104BF0028002300F04881612C40F078
:10339000A080286B494600284CBF4FF0210B00F15C
:1033A000010B404600220023DDE90C8900F026FCD9
:1033B00001990BF1010738BF89F00049091F002F5F
:1033C00001918DF808200DF1090040F33581A949DC
:1033D00000910646404649460022002300F026FCA4
:1033E00080F029814800400D00F11C0211D0002A14
:1033F0000FDD40F2FF739A4205DBA04909F000405F
:103400000143002011E0009B194041EA025140466F
:103410000BE028F0000039F0004108BF00280FBF82
:1034200049461C22494600F019FC8046894600F0B6
:1034300097FCFF1F002F044609DD00F098FC0246B0
:103440000B464046494600F099FC80468946F01DEF
:10345000072104E004F00F0200F8012D2411002CD4
:1034600001DD491EF6D5491E5CBF002200F8012D82
:10347000F9D5DCE00020194602AA0A4400E05B1EF0
:1034800012F80149491E8442F9D00F2804D10DF1E8
:103490000900425C521C4254002904D50198001DC9
:1034A00002AE5B1C0190581E0CD43118AAF13A04EC
:1034B0000A783032D7B23A2FA8BFA218401E01F8BE
:1034C0000129F5D5286B002840F1A780591E2963F2
:1034D000A3E001996A4A47F29750414391FBF2F207
:1034E000019229F00046D2F1070204DD4046314640
:1034F000FFF7ABFE0AE0524200206249FFF7A5FE4B
:1035000002460B464046314600F041FC8046662CA0
:10351000286B06BF019F0A3706273F18142FC8BF24
:10352000142730208DF8080089460DF1090000E0CD
:103530003046002F34DD06464046494600F030FC58
:1035400001460A4606F1080304200A26B2FBF6F6F5
:1035500006EB860EA2EB4E02303203F8012C0A2253
:10356000B6FBF2F202EB820EA6EB4E063036401EA0
:1035700003F8026DE9D1083F002F03F10806D7DDFB
:10358000084600F014FC02460B464046494600F04F
:10359000F5FB00223C4B00F0E4FA80468946CBE77D
:1035A0000DF10901401A0DF1090604E00199491EC7
:1035B000401E0191761C31783029F7D0662C02D15B
:1035C0000199491C03E0652C0CBF012100212B6BE4
:1035D000CB189842B8BF431E002B1ED4834204DA96
:1035E000F05C3528A8BF392000DA30201946721E59
:1035F00002EB010800E05B1E18F80199491E8145A5
:10360000F9D0392802D1705C401C7054002904D5CF
:103610000198401C16465B1C0190019800B2009076
:103620001BB232465146284600F034F82EE0C61D43
:10363000002F3FF7CFAE30460DF10901401A034687
:103640005845C8BF5B46002B0DF109063FF53AAF60
:103650008342BFF60FAF0DF10900C15C07297FF768
:1036600009AF0F2007E70000CBCCCC0C00002440B2
:1036700002FCFFFFFFFF0F800000E03F0000F07F33
:10368000A08601000000F03F84D797410FB0BDE84D
:10369000F08F00002DE9F84783B006468A461746AA
:1036A000984600F08BFBB8F1000F406A356B90F83C
:1036B000009002DC4FF00108B6A74AF02000BDF9E7
:1036C0003040662808BF641C15D0672840F084800D
:1036D00014F1040FC0F28680AC4280F2838096F829
:1036E0003800641C010702D4A845B8BF454620B283
:1036F0002D1A48BF00250FFA84FAF068B169BAF1B3
:10370000000F25DC4A1C30234354002D03DC96F8BF
:103710003800010703D5F06800F80290521C15EB41
:103720000A0FB8BF6C4220B2441941424445B8BFA9
:10373000A046B26171620FFA88F5F561F068B3696D
:103740002A463946184400F015FA641BB462C4E0F6
:1037500022B29045084417DA4246394600F00AFA88
:10376000B0694044B061AAEB0801002D716203DC2E
:1037700096F838100A0705D5F16801F80090F0694D
:10378000401CF061B562A8E0394600F0F3F9B06979
:10379000002D5044A8EB040803DC96F838100A0703
:1037A00003D5F16801F80090401CB0610FFA88F071
:1037B0008542F368B069B8BFA8460FFA88F207EBF4
:1037C0000A01184400F0D6F9B1690FFA88F00144F3
:1037D000B161281A706280E0BAF1610F14D14FF024
:1037E000700A16E0A84504DA96F838100A0758BFA0
:1037F00045466D1E48BF0025BAF1670F14BF4FF054
:10380000450A4FF0650A04E0BAF1410F08BF4FF0D6
:10381000500AB169F368481CB061002D17F8012BFC
:103820005A5403DC96F838100A071BD5F168431C7C
:10383000B36101F80090002D14DDA8F101080FFA22
:1038400088F039468542F768B8BFA8460FFA88F273
:10385000F81800F08FF9B0690FFA88F108446D1A72
:10386000B0617562F068B1690844002C80F800A06E
:1038700003D42B224270811C03E02D21417064424D
:10388000811C00206A460AE023460A2493FBF4F4D4
:1038900004EB8405A3EB450302F8013B401C24B272
:1038A000002CF1DC012806DC4AF02002652A04BF66
:1038B000302201F8012B48B9302001F8010B07E054
:1038C000401E1DF80030303301F8013B0028F7DCC2
:1038D000F268B0691044091AF16196F8380000F0F6
:1038E000140010280DD17269B169706A8A18F169E3
:1038F0008218B06A8A188218706B8242BCBF821A22
:10390000326204B0BDE8F087F8B505460E461746AA
:103910001C46002074B117F8011BB068A847B060BE
:1039200030B1F06A401CF0620020641EF3D1F2BD99
:103930004FF0FF30F2BD00007072696E74665F7305
:103940003A20256E20646973616C6C6F7765640042
:103950007072696E74663A2062616420256E20611F
:103960007267756D656E74007072696E74665F73F0
:103970003A2062616420257320617267756D656EFF
:10398000740000006E616E004E414E00696E66006C
:10399000494E460030000000C9B202788A421AB18E
:1039A0001CBF10F8012FF9E718BF00207047000076
:1039B00080B500B906A005490B681BB12222002181
:1039C000984701E0FFF746F8222002BD7414002456
:1039D000636F6E73747261696E742068616E646C7B
:1039E00065723A20626164206D657373616765007A
:1039F00000F1010310F8011B11B110F8011BFBE7E6
:103A0000C01A7047C9B2830706D0521E22D310F8DD
:103A1000013B9942F7D11FE0083A13D302F10402A7
:103A200041EA012141EA014150F8043B121F21BF44
:103A30004B40A3F1013C2CEA030C1CF0803FF3D077
:103A4000C9B2001F083210F8013B521E28BF91EA8C
:103A5000030FF8D818BF0120401E7047D3BBD9B15F
:103A6000B2F5803F5BD2022A1ED98C46B1FBF2F13F
:103A700002FB11C31B0443EA1043B3FBF2FC02FB3D
:103A80001C3380B240EA0343B3FBF2F002FB103276
:103A900040EA0C4000237047022A05D98446B0FB57
:103AA000F2F002FB10C270474AB105D100F00102EA
:103AB00049085FEA3000704700220023704700F099
:103AC00081B90B000200002100207047F7D30022CB
:103AD00000237047904271EB030CF2D370B5B1FA3A
:103AE00081F4B3FA83F52C1BA340C4F1200532FA0C
:103AF00005F63343A2405FF00046E64002E05B0873
:103B00005FEA3202841A71EB030524BF204629467E
:103B10007641F4D302000B003000002170BD70B577
:103B2000B1FA81F4B2FA82F5C4F120046419B4F157
:103B30002006DAD3B2405FF00044F440002502E0F2
:103B400052085FEA3303C61A71EB020E24BF3046F7
:103B5000714664416D41F3D302000B00200029003F
:103B600070BD41EC100B43EC112B20EE010B51EC1E
:103B7000100B70474AB1000011F8013B521E00F8CB
:103B8000013B1CBF11F8013BF8E7704710B5144624
:103B900000F002F8226010BDC1F30A5343B14A009D
:103BA00012F5001F28D2A3F2FE32A1EB025170479A
:103BB00050EA410C20D001F0004C31EA0C01B1FA7E
:103BC00081F204BFB0FA80F3D2180B3AB2F12003AD
:103BD0002CBF00FA03F1914041EA0C013EBFC2F153
:103BE000200C20FA0CF319439040524240F2FD336E
:103BF000D21A01EB03517047002270474FF4001CAA
:103C00001CEB410F94BF1CEB430F09E041EA030C8E
:103C100050EA4C0C52EA0C0C03D2994208BF904275
:103C2000704714BF8B428242704700004FF4001C63
:103C30001CEB410F94BF1CEB430F09E041EA030C5E
:103C400050EA4C0C52EA0C0C03D28B4208BF824261
:103C5000704714BF994290427047000041EC100B2E
:103C6000104600B500F004F851EC100B00BD000048
:103C7000020030EE101B40F2FF7C37D41CEA1153D7
:103C800013D063456BD09B18634504D201EB0251FE
:103C900020EE101B704701F0004141EA0C5100205A
:103CA00041EC100BAFF30080704710EE100B50EAA0
:103CB000410054D0B2F57F7F08D202EB5C010905C8
:103CC000002041EC110B20EE010B70474FF0FE413C
:103CD000002341EC113B20EE010BB2F57E7230EE79
:103CE000101B4FEA410342EB5353CDE752421CEA0B
:103CF000115316D0634532D09A4204D2A1EB02513F
:103D000020EE101B70475B1ED21AA1EB035120EE70
:103D1000101B372A0CD3002001F0004141EC100B9E
:103D2000C0E710EE100B50EA410018D0372AF2D24B
:103D3000C2EB5C021105002041EC110BF1EE100A00
:103D400020F01F0121F4F851E1EE101A20EE010BD2
:103D5000F1EE101AE1EE100A11F0080FA2D170472F
:103D600041EC100BBDEEC00B10EE100A704700EED8
:103D7000100AB8EEC00B51EC100B704741EC100B61
:103D800043EC112B30EE410B51EC100B704741EC22
:103D9000100B43EC112B80EE010B51EC100B704714
:103DA00041EC100BBCEEC00B10EE100A704700EE99
:103DB000100AB8EE400B51EC100B704700487047EA
:103DC0002C0100247047000038B5040009D004F12C
:103DD0008005696809B900F01FF800F022F8012891
:103DE00001D1012032BDA06A08B100F02AF800F02C
:103DF0000BF822F02A02826000F01DF8FFE720464F
:103E0000BDE8324000F09EBC2068416821F490413A
:103E1000416020688268704700202870204600F0CA
:103E20005CBE24216960206802685208520002606A
:103E3000204600F03FBA2068016841F001010160AE
:103E40007047204600F01ABC2DE9FC47054605F1F5
:103E500080046068884617469946202847D1B8F103
:103E6000000F14BF002F012042D094F90000012858
:103E70003DD005F15406012121700022E26021208D
:103E80006060FDF703FE378082467780A968B1F550
:103E9000805F04BF286900280EBF474640460027C0
:103EA0000021804621700FE018F8012B826208E0A3
:103EB000B8F1000F2868F7D137F8021BC1F30801E9
:103EC00081627288511E71807088CDF800905346CF
:103ED00000280FD000228021284600F062FC002834
:103EE000E6D0032004E020206060002000E00220F3
:103EF000BDE8F68700224021284600F052FC002849
:103F0000F1D0EEE770B500F180039C68202C0ED153
:103F100009B1140001D1012070BD93F90040012CBA
:103F200005D000F006F8BDE8704000F086BC022025
:103F300070BD0125DFF878431D700023C366036858
:103F4000A34206D05D682E0203D51C6844F080644D
:103F50001C60704738B5044604F16C0520680168A0
:103F600021F4907101602168DFF8F0068A68024050
:103F70008A602968012901D100F02EF800F028F8A4
:103F800012D500F02FF8286970B100210165286969
:103F9000FCF7ECFC40B12869FDF7A0FB202803D119
:103FA00010202862032032BD00210F20A4F85E10EB
:103FB000226810622068002200F004F8E861002006
:103FC0002A6032BD816941F008018161202070477B
:103FD000206881684A0670472068026822F0100253
:103FE00002607047836823F0400383607047F8B530
:103FF000044640F60F00266804F15C05F16932685A
:10400000B36808400ED1880602D5970602D4D800BE
:1040100040F180806969002900F049812046BDE8AF
:10402000F4400847DFF83806034204BFDFF8DC78C5
:104030003A426FD0CF0707D5D70505D5012737629C
:104040002E6B46F001062E638F0708D5DE0706D5D6
:10405000276802263E622E6B46F004062E634F0749
:1040600008D5DE0706D5276804263E622E6B46F08B
:1040700002062E630F070AD5960601D4034206D026
:104080002768082038622E6B46F008062E63080564
:1040900009D5560107D520684FF4006707622E6BDB
:1040A00046F020062E63286B002832D0890607D5FB
:1040B000900601D4D90003D5696909B12046884723
:1040C000286B21688A68530602D410F0280F1BD091
:1040D000204600F000FCFFF77BFF10D5FFF782FFC2
:1040E000286A60B10FF62D110165286AFCF7EEFD14
:1040F00000280ED0286A016DBDE8F440084720462C
:10410000BDE8F24000F06EBD204600F06BFD0020DF
:104110002863F1BD2F69012F40F08E80C80600D5BD
:10412000D70640F1898010213162226890684106EB
:1041300062D5286ADFF8D837016899421CBFDFF8DA
:10414000D467B1422ED0DFF8D077B9421CBFDFF878
:10415000CC37994226D0DFF8C867B1421CBFDFF8E0
:10416000C477B9421ED0DFF8C03799421CBFDFF8D0
:10417000BC67B14216D0DFF8B877B9421CBFDFF890
:10418000B43799420ED0DFF8B067B1421CBFDFF8F8
:10419000AC77B94206D0DFF8A83799421CBFDFF8E8
:1041A000A467B14249688BB2002BB2D02E88B342CB
:1041B0007DD26980C069B0F5807F19D0116821F483
:1041C0008071116020688268520852008260206805
:1041D0000022816821F0400181602020E8622A618C
:1041E0002068016821F010010160286AFCF7BEFB1D
:1041F00029886888091A19E02B8869886888591AFB
:1042000000281CBF88B2002851D01368DFF84C0486
:1042100023F490731360226800239668064096602A
:104220002022EA622B616B61FFF7D6FE204689B23D
:10423000BDE8F44000F0D7BCC80209D55F0207D53D
:104240004FF4801120463162BDE8F24000F048BDD5
:10425000080609D5170601D4180205D5A96931B396
:104260002046BDE8F440084748060ED553060CD555
:1042700031682020002221F040013160A8622046F0
:10428000AA61BDE8F24000F02CBD080206D553003B
:1042900004D52046BDE8F24000F024BDC80148BF67
:1042A000002A04D52046BDE8F24000F01CBDF1BD57
:1042B000000C00582DE9F04186B004462168DFF873
:1042C0007C0700250E68A2682369064060691643D2
:1042D000E2691E4306431643DFF864270E604B680D
:1042E000E06823F44053034391424B60A669DFF832
:1042F00054071CBF236A1E438F6807403E438E60ED
:10430000CB6A606ADFF840770FF218761B09B94272
:1043100040EA0313CB62DFF8343748D1586D10F010
:10432000380000F09D80082800F0D38010284BD082
:1043300018285AD0202800F06A80282800F07A80B7
:104340004FF0800C9142DFF80807DFF808E74FF4E0
:10435000004840F0E980BCF1020F14D0BCF1040F1A
:1043600000F0BA80BCF1080F00F0BB80BCF1100F68
:1043700000F0BC80BCF1200F00F0C080BCF1400F09
:1043800000F0BE805CE101F05DF8002800F059818A
:10439000616A36F81120B0FBF2F6626802EB420364
:1043A0009E4203D31103B14280F0AC8048E1DFF8B4
:1043B000A80681420BD100F05CF9C1D8DFE807F014
:1043C00075890415273ABBE74FF0080CBAE7DFF808
:1043D0008C0681420CD100F04CF9B1D8DFE807F02F
:1043E00065790405172AABE7EEE74FF0100CA9E753
:1043F000DFF86C0681420DD100F03BF9A0D8DFE870
:1044000007F05468050406199AE7EEE7DCE74FF079
:10441000200C97E7DFF84C0681420ED100F029F915
:10442000F2D8DFE807F042560605040788E7EEE712
:10443000DBE7C9E74FF0400C84E7DFF82C06814248
:1044400011D15F6D17F038070AD0082F41D0102F17
:10445000BAD0182FC9D0202FD9D0282FEAD06FE793
:104460004FF0010C6EE7DFF8040681420CD100F03A
:1044700000F9F4D8DFE807F0192D070605045FE717
:10448000D8E7C4E7B1E79FE7DFF8E40581420ED142
:1044900000F0EFF8F3D8DFE807F0081C0706050482
:1044A0004EE7C7E7B3E7A0E78EE7AC464AE791429D
:1044B000F6D1986D00F00700052804D8DFE800F079
:1044C0000809070605043BE7B4E7A0E78DE77BE7AB
:1044D00059E74FF0040C35E703A800F0C3FF049838
:1044E00053E7684600F0EAFF01984EE719688A062C
:1044F00005D51F68C7F3C101C84046E7704647E7C6
:10450000404645E75008002110EB062051EB1661AC
:104510000023FFF7A3FAA0F54076DFF858158E4286
:104520001DD22768F8608CE0E1694FF6F077B1F5AD
:10453000004F45D1BCF1000F12D0BCF1010F26D0C5
:10454000BCF1040F26D0BCF1080F28D0BCF1100F2D
:104550002AD0BCF1200F2FD0BCF1400F2ED06FE03D
:1045600001F0F1FA00286CD000F07CF84E0806EB60
:104570004006B6FBF1F080B2A0F11001B9425FD263
:104580000740C0F3420007432068C76059E001F0CC
:10459000E2FAE7E703A800F065FF0498E2E768465F
:1045A00000F08CFF0198DDE719688A06DCD51968F0
:1045B000C1F3C101C840D5E77046D5E74046D3E70F
:1045C000BCF1000F12D0BCF1010F20D0BCF1040FE0
:1045D00020D0BCF1080F22D0BCF1100F24D0BCF1C8
:1045E000200F29D0BCF1400F28D029E001F0ABFA10
:1045F00038B300F037F800EB5100B0FBF1F080B2B7
:10460000A0F11001B9421BD22268D06019E001F07C
:10461000A2FAEDE703A800F025FF0498E8E7684652
:1046200000F04CFF0198E3E719688A06E1D51968A4
:10463000C1F3C101C840DBE77046DAE74046D8E77E
:10464000012504F16800012100234180018083607D
:10465000C360284606B0BDE8F0810000FEFFFFEF12
:1046600001000010626A616836F81230B0FBF3F0A6
:1046700070475F6D07F00707052F704710B590F87A
:104680002810CA0706D502685368C16A23F40033AC
:104690000B43536090F82820910706D502685368B1
:1046A000016B23F480330B43536090F828205107AB
:1046B00006D502685368416B23F480230B43536093
:1046C00090F82820110706D502685368816B23F4FF
:1046D00000430B43536090F82820D10606D50268AA
:1046E0009368C16B23F480530B43936090F82820A8
:1046F000910606D502689368016C23F400530B43BE
:10470000936090F82820510610D502685368416CD8
:1047100023F480130B435360436CB3F5801F05D122
:104720005468816C24F4C0040C43546090F8282031
:10473000110606D501684A68C06C22F400220243C3
:104740004A6010BDF8B5044604F1800500206FF002
:104750007E47E860FDF79AF9216806460868020777
:1047600008D50097334600224FF40011204600F090
:1047700018F860B9206801684A070AD500973346DF
:1047800000224FF48001204600F00BF808B103200E
:10479000F2BD202000226860A8600020E266287038
:1047A000F2BD2DE9F04105460E4690461F46069C97
:1047B0002868C1693140B1420CBF0120002040454A
:1047C00038D114F1010FF3D0FDF760F9C01B84421A
:1047D00000D38CB928680023016821F4D0710160EE
:1047E00028682021826852085200826005F180000A
:1047F0004160816003701BE0286801684A07D7D5D3
:10480000C3691905D4D54FF40062026228682022DA
:10481000036823F4D073036028688168490849005D
:10482000816005F1800042608260C26000220270F7
:10483000032000E00020BDE8F081F8B504461346EF
:10484000A16504F15C06338004F18005002022217B
:10485000E860A960306AE8B10FF2ED010027C1639A
:10486000326A0FF245100FF259111064306AC164B8
:10487000306A07652768A26D306A07F12401FBF7EB
:1048800006FF38B110210020E960202228700120A5
:104890006A60F2BD002129702068026842F48072CB
:1048A00002602068816841F00101816020688268AF
:1048B00042F0400282600020F2BD01680A6822F0E6
:1048C000C0020A6001688B6823F400038B6020211A
:1048D000C0F88410704701680A6822F490720A6078
:1048E0000268DFF8941193680B409360C26E012A4E
:1048F00004D101680B6823F010030B602021002213
:10490000C0F88810C26602677047000020010004EA
:1049100010000240280002404000024058000240BF
:104920007000024088000240A0000240B80002402F
:10493000100402402804024040040240580402408F
:10494000700402408804024010B50146886BC969B2
:10495000B1F5807F00F15C021AD00023538001681A
:104960000C6824F480740C6001688B685B085B0041
:104970008B6001688C6824F040048C602021D16237
:104980001369012B04D101680C6824F010040C6039
:104990001369012B04D11188BDE8104000F023B940
:1049A000BDE8104001F009BC806B00F15C010A69B0
:1049B000012A18BF01F07EBC0988490800F013B92C
:1049C000F8B5846B00F020F804F156078A681306E6
:1049D00006D5212804D1002038802046FFF76DFF3E
:1049E00021688A68500606D5222E04D1002120466F
:1049F0003981FFF770FFA86840F01000A8602046DA
:104A0000BDE8F24000F0EEB804F1840528686E6855
:104A100021687047806B002200F156010A810A80EC
:104A200000F0E0B8010002000400060008000A00DF
:104A30000C0010002000400080000001F369FFCF4F
:104A4000000C0058FFF4FF11001001400044025810
:104A50000090D00300093D000044004000480040A1
:104A6000004C00400050004000140140007800401D
:104A7000007C004000FD0F00FEFFFFEF10B54FF47B
:104A8000E131524C52486160206000220C21A2604A
:104A9000E260204622616161A261E261226262629B
:104AA000A262FFF791F908B101F082FC00212046D3
:104AB00000F0B8F808B101F07BFC0021204600F0BE
:104AC000BCF808B101F074FC204600F08DF818B174
:104AD000BDE8104001F06CBC10BDF0B5B5B00446A7
:104AE00001A8142101F066FC06A8BC2101F062FCBB
:104AF0002568374EB54266D102210022069106A8EC
:104B0000239200F0F1F808B101F052FC3148324D27
:104B10008168324E4FF4806741F4003181608268D1
:104B200002F4003200920099036843F0010303602D
:104B300002680C232A4802F0010200920099022226
:104B4000019300210292039104910721059101A98B
:104B500001F034FC2B200021686028462E60A960FB
:104B6000E9602F616961A961E96129626962FBF706
:104B700093FB08B101F01CFC06F1180005F1840656
:104B8000E5672C21A867002040223060B060F0600B
:104B900030617061B06105F17800AC63E967C5F818
:104BA00080207760FBF778FB08B101F001FC05F18C
:104BB00078000022A0670021F462262001F014FD95
:104BC000262001F02FFD35B0F0BD0000CC120024EE
:104BD00000440040E04402583C11002440000240E0
:104BE000000002587047704710B500F1800191F93C
:104BF0000020012A01D1022010BD012324220B70C4
:104C00004A60026813681468640864001460002233
:104C10004266006823F00053036020234B600020AD
:104C20000A7010BD70B500F01FF801D1022070BDF0
:104C300000F021F822F0604209E070B500F014F8AD
:104C400001D1022070BD00F016F822F0606211431D
:104C50008160204600F01CF82068202100220660B8
:104C6000002069602A7070BD044604F1800595F942
:104C7000000001287047012224202A706860206803
:104C8000066803685B085B00036020688268704701
:104C900030B5416E11B90121012214E0016800BF55
:104CA0000FF22C040CA38A688968520E02F00702E6
:104CB000490F655CA45C595C9A5C2D01240195FB4D
:104CC000F1F194FBF2F268304180028030BD0000C7
:104CD00001010103070100000804020408010101A9
:104CE00070477047704770472DE9F047044600262B
:104CF0002068B046DFF84857010122D5626E4AB1FC
:104D0000B2F5801F0BD0B2F5001F15D0B2F5401FD1
:104D100009D014E0EB6943F40033EB6105E00221B4
:104D200000F085FB064630000AD1296C606E21F444
:104D300040110143296404E000F07CFBF2E7012606
:104D4000B0462068C1051CD5626D042A17D8DFE87B
:104D500002F0030E1205050000F05EFB30000FD1DB
:104D6000296C606DC90840EAC101296409E000F0BE
:104D70005DFB0646F2E7002100F054FBF9E701264F
:104D8000B0462068810520D5A26D4AB1402A12D0D4
:104D9000802A14D0C02A18BFB2F5807F02D012E05A
:104DA00000F03AFB30000FD1296CA06D21F4E071C6
:104DB0000143296409E000F039FB0646F2E70021CF
:104DC00000F030FBF9E70126B046206804F18407C3
:104DD000410523D53A6A62B1B2F5001F14D0B2F58D
:104DE000800F15D0B2F5C00F18BFB2F5000F02D07A
:104DF00012E000F011FB30000FD1A96C386A21F4E9
:104E000060010143A96409E000F010FB0646F2E7E7
:104E1000002100F007FBF9E70126B04620680105F4
:104E200023D57A6A62B1B2F1807F14D0B2F1007FEB
:104E300015D0B2F1407F18BFB2F1806F02D012E0FE
:104E400000F0EAFA30000FD1A96C786A21F0E06135
:104E50000143A96409E000F0E9FA0646F2E70021FF
:104E600000F0E0FAF9E70126B046206881011AD582
:104E7000A26C42B1102A04D0202A0DD0302A02D0D0
:104E80000FE000F0C9FA30000CD1E96BA06C21F002
:104E900030010143E96306E0022100F0C8FA06464A
:104EA000F1E70126B0462068C10423D5E26D62B166
:104EB000B2F5805F14D0B2F5005F15D0B2F5405F57
:104EC00018BFB2F5804F02D012E000F0A5FA300012
:104ED0000FD1296CE06D21F4E0410143296409E020
:104EE00000F0A4FA0646F2E7002100F09BFAF9E789
:104EF0000126B0462068810422D5226E92B1B2F517
:104F0000803F0BD0B2F5003F15D0B2F5403F1CBF3B
:104F1000B2F5802FB2F5A02F04D00FE0012100F0F0
:104F200086FA064630000AD1296C206E21F4E02171
:104F30000143296404E000F074FAF2E70126B04668
:104F40002068410422D5BA6A92B1B2F1805F0BD0D9
:104F5000B2F1005F15D0B2F1405F1CBFB2F1804FDB
:104F6000B2F1A04F04D00FE0012100F060FA064634
:104F700030000AD1A96CB86A21F0E0410143A9646C
:104F800004E000F04EFAF2E70126B0462068010482
:104F90001AD5E26E42B1B2F1805F03D0B2F1005F88
:104FA0000BD00FE000F038FA30000CD1296CE06E25
:104FB00021F040510143296406E0012100F037FA55
:104FC0000646F1E70126B0462068C10118D5626C9B
:104FD000032A13D8DFE802F004020D0400F01CFAE3
:104FE00030000CD1E96B606C890840EA8101E9630B
:104FF00006E0022100F01BFA0646F1E70126B04662
:105000002068410221D5DFF82496D9F8002042F427
:105010008072C9F80020FCF739FD8246D9F80000FB
:10502000C10500F1C381FCF731FDA0EB0A00652842
:10503000F4D308E0FCF72AFDA0EB090041F2893126
:105040008842C0F0D1810326B0462278D10725D509
:10505000A06F68B1082807D010281AD018281CBFE4
:105060002028282804D017E0012100F0E0F90646A6
:10507000300012D1696CA06F21F0380101436964DE
:105080000CE02960286EF96AC1F30B010843286619
:10509000DBE700F0C6F9EAE70126B04621788A0787
:1050A00019D5606F052814D8DFE800F00703100752
:1050B0000707012100F0BBF9064630000AD1696CF0
:1050C000606FC90840EAC101696404E000F0A9F911
:1050D000F2E70126B04621784A0719D5F868052875
:1050E00014D8DFE800F0070310070707012100F0DC
:1050F0009EF9064630000AD1A96CF868C90840EA52
:10510000C101A96404E000F08CF9F2E70126B04681
:1051100021788A0621D5B86888B1B0F1805F0BD0BC
:10512000B0F1005F14D0B0F1405F1CBFB0F1804F10
:10513000B0F1A04F03D00EE000F078F90646300041
:105140000AD1696CB86821F0E0410143696404E068
:1051500000F070F9F2E70126B04621784A0621D521
:10516000786988B1B0F5806F0BD0B0F5006F14D0BE
:10517000B0F5406F1CBFB0F5805FB0F5A05F03D005
:105180000EE000F053F9064630000AD1A96C7869A8
:1051900021F4E0510143A96404E000F04BF9F2E787
:1051A0000126B04621780A0621D5B86988B1B0F544
:1051B000005F0BD0B0F5804F14D0B0F5C04F1CBFCE
:1051C000B0F5004FB0F5204F03D00EE000F02EF9FF
:1051D000064630000AD1A96CB86921F46041014348
:1051E000A96404E000F026F9F2E70126B046217830
:1051F0000A0710D5D4F88000B0F5805F04D100F024
:1052000019F908B14FF00108696CD4F8800021F455
:105210004051014369642178CA060ED53869B0F55A
:10522000807F04D100F006F908B14FF00108A96CA5
:10523000386921F440710143A96421680A0319D532
:10524000F86930B1B0F5803F0FD0B0F5003F03D022
:105250000EE000F0EBF8064630000AD1A96CF869C0
:1052600021F440310143A96404E000F0E3F8F2E7DF
:105270000126B04621684A031BD53868B0F5801F67
:1052800006D0B0F5001F0ED0B0F5401F02D00EE0E2
:1052900000F0BDF830000BD1696C386821F4401182
:1052A0000143696405E000F0BCF80646F2E7012618
:1052B000B0462168CA0317D5E06C18B1B0F5803F3D
:1052C0000BD00FE000F0A3F830000CD1E96BE06CDC
:1052D00021F480310143E96306E0022100F0A7F8E0
:1052E0000646F1E70126B04621688A0004D500F0A1
:1052F000A1F808B14FF0010821688A0318D5E06FC2
:1053000058B1B0F5807F06D0B0F5007F18BFB0F57A
:10531000407F02D00AE000F07AF8300007D1696CD3
:10532000E06F21F440710143696401E00126B04659
:105330002268D00205D5296C206F21F0004101437D
:1053400029642168CA0005D52B68386B23F4804393
:1053500003432B6021688A0205D52B6CA06E23F0D5
:10536000807303432B6421684A0007D52B6823F41C
:1053700000432B602968786B014329602268002A6A
:1053800005D5EB6B206D23F040530343EB6321689D
:105390000A0205D56B6C786823F4400303436B6401
:1053A0005FEA080018BF0120BDE8F08730007FF4F5
:1053B0004BAE286EF96A00F4407001F440718842E7
:1053C0000BD0286E296E41F4803129662A6E20F4B4
:1053D000407022F480322A662866F86AB0F5807F31
:1053E00006D1FCF753FB8146286E81077FF522AE7C
:1053F000F86A296800F44072B2F5407F21F47C51CC
:1054000004D1DFF8F42302EA1012114339E6E96906
:1054100041F40031E9617047E86940F40030E86127
:105420007047012104F1240000F063B90021201D20
:1054300000F006B9022104F1240000F05AB900007E
:105440001044025880B500F064FBDFF8B823DFF8A1
:10545000B8131368C3F30212895C01F01F01C8403E
:1054600002BD000030B500F082F8C2F30015DA6B1F
:10547000C1F3053100F088F81DD000F07EF802D0AD
:10548000022C06D008E000F0B5F8996B00F04CF85B
:1054900007E09FED652A01E09FED652A996B00F01A
:1054A00053F8996B00F095F8996B00F083F8996BBD
:1054B00000F073F801E000F031F82BE030B500F0B7
:1054C00056F8C2F300255A6CC1F3055100F05CF8A0
:1054D0001DD000F052F802D0022C06D008E000F0F7
:1054E00089F8196C00F020F807E09FED4F2A01E0E1
:1054F0009FED4F2A196C00F027F8196C00F069F83D
:10550000196C00F057F8196C00F047F801E000F052
:1055100005F800BF80ED020A30BD000000229FEDBB
:10552000450A026042607047F7EE001AC1F30801B5
:1055300001EE101AB8EE411A31EE000A70EE211A8F
:1055400020EEA10A70470000DFED3B1AC2EE200AF0
:10555000C1F3080101EE101AB8EE411A00EE211A4B
:10556000B7EE000A31EE000A20EE800A7047DFF83D
:1055700090329C6A996ADA6A704714F0030400EE6C
:10558000901AF8EE600A7047C2F3CC025543002926
:1055900000EE105AB8EE400A7047C1F3066100EE03
:1055A000901AF8EE600A70EE810A80EE200ABCEED6
:1055B000C00A7047C1F3064100EE901AF8EE600A87
:1055C00070EE810AC0EE200AFCEEE00AC0ED010A8E
:1055D0007047B7EE001AC1F3462100EE901AF8EEBC
:1055E000600A70EE810AC0EE200AFCEEE00AC0ED0F
:1055F000000A704719689FED101A20EE010A8A060A
:105600000CD51968DFF8F441C1F3C101CC4001EEBB
:10561000104AB8EE411AC1EE200A70479FED072AE2
:10562000C2EE200A7047000020BCBE4B0048025862
:105630000024744A00000000000000390024744C6B
:10564000F8B500F0D0F801D10120F2BD286820F0B3
:10565000806000F0ADF807462968080120D5FCF706
:1056600015FAC01B0328F7D30320F2BD012C04D187
:10567000E86A40F48010E86203E0E96A41F400114E
:10568000E962286840F0806000F092F804462968DA
:1056900008012CD4FCF7FAF9001B0328F7D3E3E741
:1056A000A86A316820F47C3040EA013000F083F8C9
:1056B000A863E96A706921F0C0010143E962E96AFF
:1056C000B06921F020010143002CE962E96A21F070
:1056D0001001E962E86B00F065F8E863E86A40F001
:1056E0001000E862C2D1E86A40F40020C3E700205D
:1056F000F2BDF8B500F077F801D10120F2BD2868BD
:1057000020F0805000F054F807462968880020D522
:10571000FCF7BCF9C01B0328F7D30320F2BD012C12
:1057200004D1E86A40F40000E86203E0E96A41F06D
:105730008071E962286840F0805000F039F8044632
:10574000296888002CD4FCF7A1F9001B0328F7D3A3
:10575000E3E7A86A316820F07C7040EA015000F06D
:105760002AF82864E96A706921F440610143E9621A
:10577000E96AB06921F400710143002CE962E96A29
:1057800021F48071E962686C00F00CF86864E86AE2
:1057900040F48070E862C2D1E86A40F48000C3E758
:1057A0000020F2BDF1696FF3CF0040EAC1007047FD
:1057B0002860FCF76BB9A862B1687068F268491E8E
:1057C0004902401EC0F30800521E01F47E4112043B
:1057D0000843316902F4FE021043491E090601F034
:1057E000FE41084370470646054DA86A0C4600F086
:1057F0000300032870470000CFFFFF000090D00394
:105800000044025820440258ECA402082DE9F0415B
:10581000040088465AD0DFF87063306800F00F004B
:10582000404502D200F0ECF850D12078DFF85C530C
:10583000410706D52069AA6902F07002824200F091
:10584000D8F82078010706D56069EA6902F070028D
:10585000824200F0C7F82078C10606D5A069EA693F
:1058600002F4E062824200F0B6F82078810606D5A4
:10587000E0692A6A02F07002824200F0A5F82078FE
:1058800081070AD5E068AA6902F00F02824204D2B9
:10589000A969090940EA0110A8612078C1077BD5F0
:1058A000AA69A06822F470620243AA6160680228B3
:1058B00002D129688A0308E0032802D129688A01F5
:1058C00003E0012803D12968CA0503D47AE02B68D4
:1058D000590777D52A69D20840EAC2002861FCF747
:1058E000D5F807462869616800F03800B0EBC10FB1
:1058F00052D0FCF7CBF8C01B41F289329042F1D371
:10590000032047E02078410706D52069AA6902F004
:105910007002904200F06DF82078010706D56069AA
:10592000EA6902F07002904200F05CF82078C1064B
:1059300006D5A069EA6902F4E062904200F04BF8F3
:105940002078810606D5E0692A6A02F0700290424A
:1059500000F03AF800F05EF8AA69DFF84412C2F3EA
:1059600003228B5CAC69DFF8285204F00F04095D58
:1059700003F01F03D840DFF81C3201F01F0120FAAA
:1059800001F21A602860DFF814020068BDE8F041F7
:1059900000F076BEBDE8F081217888070AD5E0687E
:1059A000A96901F00F01884204D2AA69120940EAEC
:1059B0000210A861306800F00F008045A2D200F00C
:1059C0001FF89FD00120E5E704D2296A21F0700179
:1059D00008432862704704D2E96921F4E061084372
:1059E000E861704704D2E96921F070010843E86179
:1059F000704704D2A96921F070010843A86170477B
:105A00003168090948EA01113160326802F00F0279
:105A10004245704730B55D4B5F48196911F0380158
:105A200004D010290AD018290AD069E01A6894060F
:105A300067D51968C1F3C101C84030BD594830BDB0
:105A40009C6A996ADD6A5A6B05F00105C1F305117C
:105A5000C2F3CC025543002900EE105AB8EE400ABA
:105A60004CD014F0030400EE901AF8EE600A02D055
:105A7000022C20D022E019689FED3F1A20EE010A87
:105A80008A0608D51968C1F3C101C84000F03CF886
:105A9000C1EE200A03E09FED392AC2EE200A186BFE
:105AA000F7EE001A00F02EF831EE000A70EE211A1F
:105AB00020EEA10A13E09FED322A01E09FED312A8A
:105AC000186BDFED2D1AC2EE200A00F01BF800EE75
:105AD000211AB7EE000A31EE000A20EE800A186B98
