:020000040800F2
:2000000078B1002071840108998401089D840108AB840108AD840108AF840108000000009B
:20002000000000000000000000000000B1840108B384010800000000B5840108B7840108BC
:20004000C9860108CD860108D1860108D5860108D9860108DD860108E1860108E586010870
:20006000E9860108ED860108F1860108C3840108CD840108D7840108E1840108F58601080C
:20008000F9860108FD8601080187010805870108098701080D8701081187010815870108AA
:2000A000198701081D8701082187010825870108298701082D870108318701083587010888
:2000C000398701083D8701084187010845870108498701084D870108EB84010851870108D5
:2000E0005587010859870108000000005D8701086187010865870108698701086D87010869
:200100007187010875870108798701087D8701088187010885870108898701088D87010867
:200120009187010895870108998701089D870108A1870108A5870108A9870108AD87010847
:2001400000000000000000000000000000000000B1870108B5870108B9870108F58401084E
:20016000BD870108C1870108C5870108C9870108CD870108D1870108D58701080000000010
:20018000D9870108DD870108E1870108E5870108E9870108ED870108F1870108F5870108A7
:2001A000F9870108FD8701080188010805880108098801080D880108118801081588010881
:2001C000198801081D8801082188010825880108298801082D88010831880108358801085F
:2001E000398801083D8801084188010845880108498801084D88010851880108558801083F
:20020000598801085D8801086188010865880108698801086D88010871880108758801081E
:20022000798801087D88010881880108000000008588010889880108000000008D88010846
:200240009188010895880108998801089D880108A1880108A5880108A9880108AD8801081E
:20026000B1880108B5880108B9880108BD880108C1880108C5880108C9880108000000005C
:20028000CD880108D1880108D58801080000000000000000D98801081043030000004142F5
:2002A000434445464748494A4B3031323334616964697363697465636832303231303232F2
:2002C0003240403D3F403230333538303038008F01081CA3010860A9010870AA01088004FD
:2002E00012900412741012880410039CA60108A01012B004129C1012B81012B00810079443
:20030000AB01087CAC01088404128C04129404129C0412A40412C42013100001200190D01D
:20032000030412FF01100701040000E0000020E10452E0042123A10852CC0CF10B01100742
:20034000020401019C0F0020EC04529C0421346108F0041228010020140148500208020220
:200360004C40524C0421346108127044F2125C48129CB412E404F2062C2C178CAD20F10610
:200380000452FF01F2008E14153B110C1201515294582002FBC800080852F508100311C933
:2003A0000008F90C4325C910E10152011561640201000000000000000000000000000000DD
:2003C00000000000000000000000000000000000000000000000000000000000000000001D
:2003E0000000000000000000000000000000000000000000000000000000000000000000FD
:200400000000000000000000000000000000000000000000000000000000000000000000DC
:200420000000000000000000000000000000000000000000000000000000000000000000BC
:2080000000010000F4AB01086181000884A3010800010000FCAB01082D9B00080CA801085F
:2080200000080000CCAC0108FE880108C0AA010800210000D4AC0108A1B90008DCAC010818
:208040000009000000415B1BC1BD0008BCAD01080009000000425B1BCFBD0008E4AC01087A
:208060000019000000435B1BDFBD0008ECAC01080019000000445B1BFFBD0008F4AC0108A9
:20808000000900000000000919BE0008C0AD01080019000000000008EBBF0008C4AB01082E
:2080A000001900000000007FEBBF0008D0AB0108001900007E335B1BF9BF0008FCAC010841
:2080C000001900000000000A09C0000804AD0108001900000000000D09C000080CAD010839
:2080E0000020000014AD01081DC0000864A40108002100001CAD0108F5C10008D0AA01086C
:208100000021000024AD010809C20008E0AA0108002100002CAD01081DC20008F0AA010871
:208120000021000034AD010831C2000800AB0108002100003CAD010845C2000810AB01089F
:208140000020000044AD01085DC20008D4A601080001000084AD010837890008ECA90108BA
:20816000F8B504000D00002C01D0002D04D1DFF89C0600F085FBAAE0DFF89416200000F03E
:2081800093FB002848D1DFF88C0600F079FBDFF88816280000F088FB002806D100F08DFABD
:2081A0000020DFF87816087012E0DFF87416280000F07AFB002806D100F087FA0120DFF87A
:2081C0005C16087004E0DFF85C0600F059FB7EE000F028FC00F0DDFB012878D1DFF8480683
:2081E00000F04EFBDFF84466DFF830763978306800F0CEF93878002802D1DFF8340602E0AA
:208200003068D0F888003168C1F88800306800F02FFA00F05DF85AE0DFF81816200000F057
:2082200043FB00284ED1DFF8100600F029FBDFF8E815280000F038FB002806D100F03DFA73
:208240000020DFF8D815087012E0DFF8D415280000F02AFB002806D100F037FA0120DFF8BB
:20826000BC15087004E0DFF8BC0500F009FB2EE0DFF8B8653068D0F8B80080473068D0F804
:20828000BC008047012822D1DFF89C0500F0F8FADFF88875397830683268D2F8C0209047AD
:2082A0003878002802D1DFF8880502E03068D0F888003168C1F88800306800F0D9F900F0C1
:2082C00007F804E0DFF85C0500F0DAFAFFE7F1BD10B5DFF85845206800F08CF92068D0F8A5
:2082E0008800DFF84C15884231D0DFF85015884210D0DFF84C1588422FD100F001FA5FF0D1
:2083000010512268D2F8A020904700F0B8F8FFF7DFFF32E02068D0F88C00401C2168C1F811
:208320008C002068D0F88C00032804D300F0A7F8FFF7CEFF21E0206800F09AF900F0E0F9AC
:208340005FF010512268D2F8A020904715E0206800F014F8FFF7BCFF0FE000F0D1F95FF060
:2083600010512268D2F8A020904700F0BEF95FF000512268D2F8A020904710BD2DE9F04765
:2083800088B005006846202100F08CFBD5F88800DFF89C1488426FD1DFF89064B3A73800F7
:2083A0003168D1F8B4108847296C884204D2DFF8940400F065FA5FE000F077F95FF0000ADD
:2083C0000024296CDFF8800400F05AFA012301220121012000F090FB38003168D1F8B410E2
:2083E00088478046286C40094001296C884204D2286C4009401C440102E0286C4009440113
:20840000444500D344465FF00009A14521D220234A466946DFF80004D6F800C0DCF8B0C016
:20842000E04710F1010F27D020234A4669463800D6F800C0DCF8ACC0E04710F1010F1BD062
:20844000002301222100484600F056FB19F12009DBE7002301222100484600F04DFBA7A07D
:2084600000F00EFADFF8D403C5F888000020C5F88C00280000F0FCF808B0BDE8F0872DE9B2
:20848000F04788B06846202100F00CFB00F00DF95FF0000A0026012301220121012000F098
:2084A0002BFBDFF888430FF2C41840462168D1F8B410884707002068D0F88400874202D333
:2084C0002068D0F88470DFF8589348462168D1F8B4108847874201D23D0005E0484621684E
:2084E000D1F8B410884705002900DFF8600300F0C7F9280040094001A84204D22800400925
:20850000401C460102E02800400946010027B7421FD220233A0069464846D4F800C0DCF8F3
:20852000B0C0E04710F1010F2FD020233A0069464046D4F800C0DCF8ACC0E04710F1010FDE
:2085400023D0002301223100380000F0D5FA2037DDE7002301223100380000F0CDFA67A032
:2085600000F08EF9B5482168C1F8880000202168C1F88C0020680564206810F14401206888
:2085800000F054FB206800F073F808B0BDE8F08770B504000D00A02300222100AC48A34EC4
:2085A0003668D6F8B060B0470600002E02D5A94800F066F92800C0B200280AD100F0DBF99C
:2085C00040220100200000F07FFA00F0D6F920640FE02800C0B201280BD100F0CCF94022C7
:2085E000010014F1440000F06FFA00F0C6F9C4F8840070BD38B50400A023002221009448E9
:208600008A4D2D68D5F8B050A8470500002D02D5904800F035F9002084F83F00002084F8BC
:208620008300D4F888000090236C22003F218A4800F026F9D4F888007D4988420DD07F4958
:20864000884206D07E4988420BD1844800F018F90AE0834800F014F906E0824800F010F9E5
:2086600002E0814800F00CF931BD00006170700038B504007D4800F003F900F02EF8A023B0
:20868000002221007248694D2D68D5F8AC50A847774800F0F5F831BD10B5040020006349BB
:2086A0000968D1F8CC10884710BD80B554A05F490968D1F8A810884701BD80B556485B4941
:2086C0000968D1F8A810884701BD80B5544857490968D1F8A810884701BD80B55C485349B6
:2086E0000968D1F8A810884701BD80B545A04F490968D1F8A410884702BD00000D0A0000B6
:2087000080B53FA049490968D1F8A410884702BD38B5040045480068D0F8C40080470500F9
:208720002000C0B2022803D11E205249086018E02000C0B2002803D103204E49086010E0D0
:208740004C490868002802D1FFF7C2FD09E04A480268954205D005600868421E0A60FFF73E
:208760009BFF31BDF8B504000D0000262B49087800280ED180232A0092B2521E80204243EC
:2087800021002548294F3F68D7F8AC70B847060010E0087801280DD180232A0092B2521E44
:2087A0008020424321001E48204F3F68D7F8AC70B8470600002E02D5304800F061F8F1BD93
:2087C00010B51A480068D0F8C800804704002000C0B2002803D10120FFF79AFF04E000F09D
:2087E0004EFA0220FFF794FF10BD10B50400002C04D00E48046004A000F042F810BD00009B
:2088000061707000626C00000D0A0000F0A60108DCAB010808A7010840AB010866110020C0
:20882000E4AB010800AA010820A70108141100205555AD004CAB0108A4A401086666AD00B7
:208840008888AD006CA10108649F0108889E0108ECAB0108C0A40108489A010810AA01084F
:2088600020AA010838A7010830AA0108DCA40108F8A40108000000201811002050A70108C3
:208880000EB4C0B5024603A800210190009101AB0121044878440C3000F014FA06BC5DF844
:2088A00010FB00BF4500010010F8012B11F8013B0AB19A42F8D0D01A70470268531C0360F3
:2088C0001170704770B504000D00160069480188491C01800188200001F08DF9280070BD7F
:2088E000F8B504000D001600624F3888401C38802B003A88521E6A4321005DA001F005FA07
:20890000388830705C49388868430A6C904205D3388805FB1050096C081800E02800F2BD5B
:2089200038B504000D002A0092B221005348006801F08AFA31BD38B5040051492000FFF7A3
:20894000B3FF002816D101204E49087000F06AF8494DA023002229004B4801F0D6F9296C48
:20896000280000F00DF800F014F8012802D14748FFF786FF31BD464870474548006C7047F5
:2089800038B504000D002A002100414801F00AFF31BDF8B500240025384E3068C06801F0F0
:2089A00065FF862801D3852500E00500394F2A0039003068C06801F0EDFF2A0039003448DB
:2089C00001F00AFF04002000C0B2002806D002280DD0042811D0052815D015E03068C0682E
:2089E00001F049FF002027490870012019E029003068C06802F009F80FE001213068C0686F
:208A000002F003F809E008E03068C06801F033FF00201C490870002003E0142002F024F873
:208A2000BAE7F2BD1CB5154C022001F022FA2060206800281BD01348007800280AD13C2038
:208A4000019015480090154B154A0021104801F0E3FE09E03C2001900F4800900F4B104A1D
:208A600001210B4801F0D8FE00200249088013BD6170700064110020C809002058110020A7
:208A800074AD01086F1100207CAD0108E0A70108E40E0020100C002021890008E1880008D9
:208AA000C5880008002201F0F3BF03681AB95A1E026008467047197811B94FF0FF307047FF
:208AC000591C01601878704770B506000D001400002C03D0002E01D0002D01D130000AE016
:208AE00022002900300002F009F8002006EB040101F8010C300070BD2DE9F74F1C00DFF840
:208B000014510099642041430198B1FBF0F6002E37D42000C0B2012816D14FF498775FF0A8
:208B20000008DFF8F49042463900484602F01EF84FF497795FF0000ADFF8E0B05246494641
:208B4000584602F013F81CE0DFF8D4000168B14213D006609DF8080001280ED1DFF8BC10E6
:208B600023208855042096FBF0F200FB12602B5C3200DFF8B000FFF783FEDFF8AC0002F0A5
:208B80009FF8BDE8F78F0100C9B2412906DB0100C9B25B2902DA2030C0B200E0C0B27047A5
:208BA00070B50400002000252178302907D16178782902D06178582901D1022600E00026D7
:208BC000A05D302802DBA05D3A280BDBA05D612802DBA05D7B2805DBA05D412818DBA05DE5
:208BE0005B2815DAA05DFFF7CEFF3A2807DBA05DFFF7C9FF10EB05105738050006E0A05DBD
:208C0000FFF7C1FF10EB051030380500761CD7E7280070BD64AD010828070020F8050020F6
:208C200098000020D8A90108E40000205FEA000C11F8012B00F8012B12B111F8012BF9E768
:208C40006046704701B5012269461948006801F0FBF801BD70B50500154E3068C06801F086
:208C600005FE0400002C02D15FF0FF3006E0012229003068C06801F00DFE002070BD80B500
:208C80000C4803F0A6FA01BD10B5094C022001F0F0F820602068002809D00648064981668D
:208CA000064941664FF40072054902F025F810BD40110020780E0020458C0008558C000806
:208CC000200200202DE9F0439FB000BF65A6269CDFF8B48A8DF83B40029100240B944FF084
:208CE000FF37044691461D460AE019F8011B0298A0470028029000F0A1800B98401C0B90BD
:208D000099F8000050B12528EFD100210022059106920791089209910A9203E00B98A5E0D0
:208D200041F0010119F8010F2028F9D023280CD02B2804D02D2805D0302809D080E041F094
:208D40000201EFE741F00401ECE741F00801E9E741F01001E6E70D920AE00D98404505DA86
:208D600000EB800002EB4002303A0D9209F1010999F80020A2F130000A28EED399F8000054
:208D80002E2818BF0C9726D119F8010F2A2808D12868286009F1010950F8042B28600C9207
:208DA00019E02D280CBF09F10109002000220C920BE040B90C9A424505DA02EB820203EB67
:208DC0004203303B0C9309F1010999F80030A3F130020A2AEDD3ADF83810304699F80010C1
:208DE00003F07AFA08B119F8010B8DF83A009DF83A00682805D199F8000068280CD16221C1
:208E000006E06C2804BF99F800006C2804D171218DF83A1009F1010910A804902A4619F8E9
:208E2000013B6946204600F061F838B910AA6946204600F08FF900287FF562AF384615E040
:208E40002A2888D12A682A6052F8040B2A6000280D9003D540420D9041F0040109F1010972
:208E60008CE70000686A6C747A4C00001FB0BDE8F083622820D0682811D06A2803D06C283C
:208E800027D0712825D10868C01D20F007000860D0E9002308300860194610467047002A6E
:208EA0000A680A60106803D0121D0A6000B217E0121D0A6080B217E0002A0A680A60106809
:208EC00003D0121D0A6040B20AE0121D0A60C0B20AE0002A0A680A60106803D0121D0A606B
:208EE000C1177047121D0A600021704770B51C460D46B4F125002E69114600F019811C3802
:208F000068D0001F022865D9133842D0093861D0801E16D0401E1ED0401E02285AD9001F19
:208F200019D0401F00F08180401E32D0401E00F0CB80C01E00F0DA80801E2AD0C01E28D069
:208F4000FCE06869421C6A610A680A6052F8043B0A603354FCE095F83A000122FFF789FFA1
:208F6000C5E90001002904D56869411C69612D220DE0288F810704D56869411C69612B22AF
:208F800005E0C00721D56869411C6961202232541BE095F83A000022FFF76BFFC5E900017C
:208FA00095F83800010710D5D5E90023002B08BF002A0AD044F02000782806D1686930213B
:208FC0003154401C421C6A613454214668693044E86087E00868C01D20F007000860D0E91F
:208FE000002308300860C5E90023D5E90001C80F04D06869411C69612D220DE0288F810700
:2090000004D56869411C69612B2205E0C00704D56869411C69612022325468693044E86060
:209020002146284600F0C4F992E005F13A02507820B14FF0FF340FF6202062E01078622866
:2090400008D0682824D06A2812D06C282ED071280ED02BE00A680A6052F8040B0A6020B9B4
:209060004FF0FF340FF608204BE0E96A01706FE00A680A6052F8040B0A6020B94FF0FF3429
:209080000FF6EC103DE0EA6AD317C0E900235FE00A680A6052F8040B0A6020B94FF0FF347F
:2090A0000FF6CC102DE0E96A018051E00A680A6052F8040B0A6020B94FF0FF340FF6B0100E
:2090C0001FE0E96A016043E00A680A6052F8040B0A60002120F0000221F0FF33C5E90023D4
:2090E000EE607821284600F0BBF831E00868086050F8044B0860EC603CB94FF0FF340FF6D8
:20910000881003F0F5F8201A70BD2E6B002E04D5204603F00DF9044608E032460021204640
:2091200003F022F9002814BF041B3446AC610FE06869411C69612522325409E06969481CAD
:20914000686125227254210002D0431C6B613454002070BD2DE9FC410F46064690467A6B97
:209160007869396ABC6A121AB869521A796A121AF869521A121A97F83800141B41070FD463
:209180002020002C8DF800000ADD254601236A463946304600F048FC00285DD16D1EF5D1E8
:2091A0007B6942463946304600F03EFC002853D130208DF800003D6A002D09DD01236A4675
:2091C0003946304600F030FC002845D16D1EF5D1BB69FA683946304600F026FC00283BD12E
:2091E00030208DF800007D6A002D08DD01236A463946304600F018FC70BB6D1EF6D1F868F7
:20920000B969FB6942183946304600F00DFC18BB30208DF80000BD6A002D08DD01236A46CB
:209220003946304600F000FCB0B96D1EF6D197F8380041070DD52020002C8DF8000008DDCB
:2092400001236A463946304600F0EEFB20B9641EF6D10020BDE8F6814FF0FF30BDE8F68184
:209260002DE9FC4307466F293E6908BF082405D041F02000782814BF0A2410243C25D7E9FE
:209280000023642918BF69299046994605D1002B03D5D8F1000869EB4909B9F1000F08BF30
:2092A000B8F1000F1FD1386BE8B9082C4CD197F83800010748D530203B2586F83B0043E0F9
:2092C00000280ED597F8380000F01400102808D17B6B7969386A5B1A1B1A9A1A002AC8BF2E
:2092E0003A62BDE8F3838DF80010404649462246E31703F065F83032D0B26D1E3A280195F4
:2093000004DB9DF80000A0F151018A187255404649462246E31703F053F880465FEA0109BF
:2093200008BFB8F1000F03D0F86871198842DCD3082C09D197F83800010705D5705D30289C
:2093400002D06D1E30207055C5F13C02BA617119F960386B8242B3DA821A3A624FF6EF70D9
:20936000398F01403987BDE8F3832DE9D04306460F4614464FF00008DFF8109412E0E0074A
:2093800007D542464B463046394603F031F906460F464046494642464B4603F029F964106E
:2093A00080468946002CEAD130463946BDE8D0832DE9F84F05468A464AF020048EB0D5E972
:2093C0000089612C02AE09D0286B002848BF062003D408BF672C01D101202863D5E9000198
:2093E0004A005215521C0DD10B030BD0AAF1610103201A29A86102D20FF2A86110E00FF24C
:20940000A8610DE04A005215521C0ED10B030CD1AAF1610103201A29A86116D30FF2906126
:20942000E868032203F0EEF8C0E1CDE90C01DDE90C2323F00043B3F5801F0DD20027002BB7
:2094400008BF002A019703D111E00FF26061E7E701AA03F037F90AE0CD48CE4900EB1350FC
:20946000DDE90C2301900B40CB4910461943C5E90001612C0DD1E86830210170821CBAF1E0
:20948000610FEA600CBF7821582141706869801C6861D5E90001CDE90C01DDE90C2333F0B4
:2094A000004104BF0028002300F04881612C40F0A080286B494600284CBF4FF0210B00F116
:2094C000010B404600220023DDE90C8903F032F901990BF1010738BF89F00049091F002F8E
:2094E00001918DF808200DF1090040F33581A94900910646404649460022002303F032F9F6
:2095000080F029814800400D00F11C0211D0002A0FDD40F2FF739A4205DBA04909F0004014
:209520000143002011E0009B194041EA025140460BE028F0000039F0004108BF00280FBFB4
:2095400049461C22494603F025F98046894603F0A3F9FF1F002F044609DD03F0A4F9024625
:209560000B464046494603F0A5F980468946F01D072104E004F00F0200F8012D2411002CBA
:2095800001DD491EF6D5491E5CBF002200F8012DF9D5DCE00020194602AA0A4400E05B1E95
:2095A00012F80149491E8442F9D00F2804D10DF10900425C521C4254002904D50198001DF4
:2095C00002AE5B1C0190581E0CD43118AAF13A040A783032D7B23A2FA8BFA218401E01F80D
:2095E0000129F5D5286B002840F1A780591E2963A3E001996A4A47F29750414391FBF2F27C
:20960000019229F00046D2F1070204DD40463146FFF7ABFE0AE0524200206249FFF7A5FE2D
:2096200002460B464046314603F04DF98046662C286B06BF019F0A3706273F18142FC8BF7C
:20964000142730208DF8080089460DF1090000E03046002F34DD06464046494603F03CF9FD
:2096600001460A4606F1080304200A26B2FBF6F606EB860EA2EB4E02303203F8012C0A224C
:20968000B6FBF2F202EB820EA6EB4E063036401E03F8026DE9D1083F002F03F10806D7DDBF
:2096A000084603F020F902460B464046494603F001F900223C4B02F09BFF80468946CBE739
:2096C0000DF10901401A0DF1090604E00199491E401E0191761C31783029F7D0662C02D186
:2096E0000199491C03E0652C0CBF012100212B6BCB189842B8BF431E002B1ED4834204DAFE
:20970000F05C3528A8BF392000DA30201946721E02EB010800E05B1E18F80199491E8145A1
:20972000F9D0392802D1705C401C7054002904D50198401C16465B1C0190019800B200900A
:209740001BB232465146284600F034F82EE0C61D002F3FF7CFAE30460DF10901401A0346AF
:209760005845C8BF5B46002B0DF109063FF53AAF8342BFF60FAF0DF10900C15C07297FF7CD
:2097800009AF0F2007E70000CBCCCC0C0000244002FCFFFFFFFF0F800000E03F0000F07F0A
:2097A000A08601000000F03F84D797410FB0BDE8F08F00002DE9F84783B006468A4617463C
:2097C000984603F0B7F8B8F1000F406A356B90F8009002DC4FF00108B6A74AF02000BDF95C
:2097E0003040662808BF641C15D0672840F0848014F1040FC0F28680AC4280F2838096F8BB
:209800003800641C010702D4A845B8BF454620B22D1A48BF00250FFA84FAF068B169BAF1DA
:20982000000F25DC4A1C30234354002D03DC96F83800010703D5F06800F80290521C15EBC6
:209840000A0FB8BF6C4220B2441941424445B8BFA046B26171620FFA88F5F561F068B369FC
:209860002A463946184402F0CDFE641BB462C4E022B29045084417DA4246394602F0C2FE08
:20988000B0694044B061AAEB0801002D716203DC96F838100A0705D5F16801F80090F069A1
:2098A000401CF061B562A8E0394602F0ABFEB069002D5044A8EB040803DC96F838100A0703
:2098C00003D5F16801F80090401CB0610FFA88F08542F368B069B8BFA8460FFA88F207EBCB
:2098E0000A01184402F08EFEB1690FFA88F00144B161281A706280E0BAF1610F14D14FF0DE
:20990000700A16E0A84504DA96F838100A0758BF45466D1E48BF0025BAF1670F14BF4FF099
:20992000450A4FF0650A04E0BAF1410F08BF4FF0500AB169F368481CB061002D17F8012B99
:209940005A5403DC96F838100A071BD5F168431CB36101F80090002D14DDA8F101080FFA85
:2099600088F039468542F768B8BFA8460FFA88F2F81802F047FEB0690FFA88F108446D1A2D
:20998000B0617562F068B1690844002C80F800A003D42B224270811C03E02D2141706442E2
:2099A000811C00206A460AE023460A2493FBF4F404EB8405A3EB450302F8013B401C24B28D
:2099C000002CF1DC012806DC4AF02002652A04BF302201F8012B48B9302001F8010B07E021
:2099E000401E1DF80030303301F8013B0028F7DCF268B0691044091AF16196F8380000F03F
:209A0000140010280DD17269B169706A8A18F1698218B06A8A188218706B8242BCBF821AAB
:209A2000326204B0BDE8F087F8B505460E4617461C46002074B117F8011BB068A847B06030
:209A400030B1F06A401CF0620020641EF3D1F2BD4FF0FF30F2BD00007072696E74665F7386
:209A60003A20256E20646973616C6C6F776564007072696E74663A2062616420256E206169
:209A80007267756D656E74007072696E74665F733A2062616420257320617267756D656E17
:209AA000740000006E616E004E414E00696E6600494E460030008268521C8260426832B107
:209AC0000268531C036011704168491E416070477047002070477047F8B504000D00160048
:209AE0001F003B0032002900200000F0F7F8F2BDF8B504000D0016001F003B00320029007A
:209B0000200000F002F9F2BD10B50400200000F013F910BD10B50400200000F020F910BD1A
:209B200010B50400200000F029F910BDF8B504000D00002621684F48FEF7A2FE4E4F21689E
:209B400039404E48FEF79CFE20680740AF4227D1201D006806004A4F3E6072B600204949F3
:209B6000086000204849086000204849086002F0E7FE03F014FE00F0ABF90020082809DAA8
:209B80005FF0FF31424A42F82010424A42F82010401CF3E762B6206880F30888386880471A
:209BA0003D48FEF76DFEF1BD80B5002003F08DFE02BD38B50400394D042C0ED2032C05D1F4
:209BC000210015F10800FEF75BFE03E021002800FEF756FE324801F073F831BD80B5314821
:209BE0000068C06800F042FE0100002901D1002000E0012002BD38B504000D00290089B267
:209C00002000FEF7AFFD31BD80B5FEF7D9FD01BD10B5244C022000F02CF92060206800283B
:209C200026D021482149C0F8C8102149C0F8C4102049C0F8CC102049C0F8AC101F49C0F8DB
:209C4000B0101F49C0F8A4101E49C0F8B4101E49C0F8A8101D49C0F8B8101D49C0F8BC10E6
:209C60001C49C0F8C0101C49C0F8A010FEF7BDFD10BD000090A101080000F02F68A701083D
:209C80001C11002010E000E014E000E018E000E080E100E080E200E0F8A701080C97010824
:209CA000E40000202011002058080020DD9B0008A99B0008B39B0008D99A0008F19A00089F
:209CC000159B0008219B0008099B0008D19A0008D39A0008D79A00082D9B00082DE9F041E4
:209CE00005000E0017009846280003F004FF0400002C02D15FF0FF3005E0434632003900E4
:209D0000200003F087FFBDE8F0812DE9F04105000E0017009846280003F0EDFE0400002C0F
:209D200002D15FF0FF3005E0434632003900200003F00CFFBDE8F08138B50500280003F0B8
:209D4000DAFE0400002C01D1002007E0200004F061F8002801D5002000E0012032BD10B5E2
:209D60000400200003F0C7FE0100002902D15FF0006002E0486B10F1006010BD38B50400A7
:209D80005FF0FF35200003F0B6FE0100002901D1280000E0886B32BD80B504F043F801BD71
:209DA0002DE9F84F05000E00170098460B9CDDF83090DDF834A01C2004F008FF8346CBF896
:209DC0000060CBF80470CBF80880484600F021FECBF80C00ABF81440200080B204F0F6FE04
:209DE000CBF81000DBF81000002801D100200DE0CBF818A054482900C9B240F821B00122BF
:209E0000DBF81010300005F08DFB5846BDE8F28F010000221000C0B2082813DA4A4B100077
:209E2000C0B253F8200000280AD01000C0B253F8200000680068884202D11000C0B202E085
:209E4000521CE7E70020704770B504000D001600002C01D100200BE0FF23320092B22900D9
:209E6000206805F0EEFA002801D0002000E0012070BD01000800C0B2072801DB002003E0AD
:209E80003148C9B250F82100704738B504002068FFF7BEFF05002800C0B200280DD02A486C
:209EA00001222900C9B250F8211009692B00DBB250F82300C06800F02BFD012222482900D7
:209EC000C9B250F821000169200005F02BFB31BD10B500242000C0B208280FDA1A492000F4
:209EE000C0B251F82000002806D02000C0B251F82000006806F05AFB641CEBE710BD1FB5E8
:209F0000114C002003904FF4807002904FF480700190002000900D4B0D4A0E490220FFF7DA
:209F20003FFFA060A068002802D10B48FEF7A8FC1FBD11B581B00C00FF23012201A90548D9
:209F400005F07FFA019816BD90100020100D0020980C0020F80A002084A4010810B403004C
:209F600000200A0092B2002A14D01A7890EA02205B1C00221400082C0ADA020405D5020090
:209F800041F2210090EA420000E04000641CF2E7491EE6E780B210BC7047F8B504000D0091
:209FA000002C01D1002041E0280080B2842803D0280080B2852801D2002037E000262078BA
:209FC000012801D1802701E04FF480672078012802D02078022828D12078012801D1802053
:209FE00001E04FF48060290089B281421DD3390089B2E01CFFF7B2FF01002078012806D196
:20A0000094F8832094F8840050EA022005E094F8032494F8040450EA02200A0092B282420B
:20A0200001D0002002E0012000E00020F2BD30B403000020904206D21C5C0D00EDB2AC42BA
:20A0400002D0401CF6E7002030BC704738B5A2B0040068468821FEF725FD01208DF80000DB
:20A060006846002141704078C0438DF8020080210DF10300FFF772FF050000208DF88300E8
:20A0800028008DF8840085216846226E904723B030BD2DE9F043A3B00500E86D002801D124
:20A0A00003204EE0022701A88821FEF7FBFC00208DF800006A4680210DF10700EB6D9847B6
:20A0C0000400002C01D100203BE0802C0FD2002C0DD0D4F180085FF01A0901A800EB040650
:20A0E0004A464146300000F041FD002600E0022601208DF8040001A89DF80010417041785B
:20A10000C943817080210DF10700FFF727FF0700380080B2000A8DF8870038008DF88800B4
:20A12000286E002801D103200BE0852101A82A6E9047686D20186865280000F03EF830006B
:20A14000C0B223B0BDE8F08330B5A3B0040001A88821FEF7A7FC01208DF8040001A8002108
:20A1600041704078C0438DF80600206C00902300DFF8582680210DF1070006F069FA200035
:20A1800002F0D6F801A908440021C17080210DF10700FFF7E3FE0500280080B2000A8DF84C
:20A1A000870028008DF88800206E002803D0852101A8226E904723B030BD002816D0016C69
:20A1C000002913D0016C426D914201D2016C00E0416D416590ED150AB8EE400AD0ED100AAD
:20A1E000F8EE600A80EE200A80ED110A704780F86510704701000878042801D1022000E013
:20A20000042070472DE9F04104000D001600852E01D205203CE02878012801D1852701E006
:20A2200040F205472878012802D15FF0800801E04FF480682878012808D02878022826D1BF
:20A240006878A978C943C9B2884220D1380080B2864201D205201BE0390089B22800FFF704
:20A260009CFE012813D1A06D002801D104200FE06A78414689B2E81CA36D9847606D10FAAF
:20A2800088F060652000FFF798FF022000E00420BDE8F081F8B505000E004022F11C280041
:20A2A00000F02CFC80222021F01CFFF7C0FE0400002C03D0002006EB0401C8700027380033
:20A2C000C0B2802813D23800C0B23044C07800280BD100203900C9B268543800C0B2304477
:20A2E000001D06F077FA286406E07F1CE7E7002085F83F0000202864F1BDF8B504000D000B
:20A300001600852E01D205201EE02878012801D1852701E040F205472878012813D168784B
:20A32000A978C943C9B288420DD1E87800280AD1390089B22800FFF730FE002801D104208C
:20A3400002E0022000E00420F2BD2DE9F84304000D0016000027B74204D2E85D012801D099
:20A360007F1CF8E7B6EB0708404680B2852801D2052020E005EB070999F80000012819D1B2
:20A3800099F8010099F80210C943C9B2884211D199F8030000280DD085214846FFF7FDFD98
:20A3A000002801D1042006E049462000FFF772FF022000E00420BDE8F28373B50400150002
:20A3C000DFF80C643068A16C884203D12800C0B2012805D1012101A8226E90473068A0648C
:20A3E00073BD10B40300052A01D200200EE00024200080B2052808D2200080B2085C1828E3
:20A4000001D0002002E0641CF2E7012010BC7047F8B504000D0016000227320029002000F4
:20A42000FFF7DFFF012805D100212000FFF7DFFE0320CBE094F86500002816D0401E0128E1
:20A440001CD9801E36D0401E3ED0401E032845D9001F012868D9801E7AD0401E012840F226
:20A4600084800F3800F0978097E0DFF864030068206501212000FFF7BAFE8EE0206E0028D4
:20A4800001D10320A2E0002243212000FFF795FF320029002000FFF758FF0700C0B20228AA
:20A4A00007D103212000FFF7A2FEDFF824030068206572E0012206212000FFF77EFF0421AB
:20A4C0002000FFF794FE68E0012243212000FFF774FF05212000FFF78AFE5EE02800FFF75C
:20A4E00089FE0700C0B202280CD1012215212000FFF763FF09212000FFF779FEB448006869
:20A50000206510E0320029002000FFF77BFE0700C0B2022807D1012206212000FFF74DFFB5
:20A52000AB480068206538E02800FFF763FE0700C0B202280BD1012206212000FFF73DFF89
:20A540000B212000FFF753FEA1480068206524E0012243212000FFF730FF0C212000FFF77F
:20A5600046FE9B480068206517E0320029002000FFF7C3FE0700C0B202280BD11B212000C3
:20A58000FFF735FE012206212000FFF716FF90480068206501E0002018E094F8650094F8E2
:20A5A000661088420CD1E16C89480268206D121A914205D21B212000FFF719FE012005E024
:20A5C00094F8650084F866003800C0B2F2BD70B504000D00160094F86500002821D00E28C3
:20A5E00027D00F2830D0102839D0112842D012284BD013285BD0142864D0152874D01628B7
:20A6000072D0172800F08080182800F08880192800F085801A2800F090801B2800F09880CE
:20A6200098E06B48006820650E212000FFF7DFFD90E02878432806D16548006820650F21C5
:20A640002000FFF7D4FD85E02000FFF77DFD10212000FFF7CCFD5E48006820657AE0287881
:20A66000062806D111212000FFF7C1FD5848006820656FE02878432806D112212000FFF7C8
:20A68000B6FD53480068206564E02000FFF701FD002804D114212000FFF7A9FD5AE01321CB
:20A6A0002000FFF7A4FD4A480068206552E02878062806D112212000FFF799FD44480068BA
:20A6C000206547E0206E002801D103205AE015212000FFF78CFD012204212000FFF76DFE4B
:20A6E0003B480068206535E0287815280BD117212000FFF77CFD012204212000FFF75DFE9C
:20A7000033480068206525E02878062806D118212000FFF76CFD2E48006820651AE0287872
:20A72000432809D11A212000FFF761FD2000FFF78DFC2748006820650CE02878062806D199
:20A740001B212000FFF753FD21480068206501E0002017E094F8650094F8661088420CD16F
:20A76000E16C1B480268206D121A914205D21B212000FFF73CFD012004E094F8650084F85F
:20A780006600022070BD13480168491C01600168B1F57A7F05D1002101600D480168491CF7
:20A7A0000160704770B505000C001600002D01D0002C00D108E040222100280000F09EF920
:20A7C000002085F83F002E6470BD00006CAD01085011002054110020F8B504000D001600E2
:20A7E0000027002C01D1062015E094F86400002802D0012806D00BE0320029002000FFF7D4
:20A8000007FE07E0320029002000FFF7E0FE01E0062000E0C0B2F2BD2DE9F24F04009046C4
:20A820001D000A9E0B9F002C05D04046002804D12800002801D1002016E05FF068095FF0DE
:20A84000000AA34652464946584600F08FF9E7649DF8000084F86400002084F86500C4F84B
:20A860005880E56526660120BDE8F28F01008868C968401A7047F8B504000020E060E06857
:20A88000A06065680026276832002900380000F06DF9F1BD2DE9F84F05000E000021AB68FB
:20A8A000E8681B1A9A4201D2140002E0A868EC68041B6868EA686B685B1E1A40801A8442C3
:20A8C00001D2270005E06868EF686968491E0F40C71B00972868E9686A68521E114000EB13
:20A8E0000108B146009A4146484601F08BFEB4EB0709D5F800A006EB070B4A46514658464B
:20A9000001F080FEE8682018E8602000BDE8F28F2DE9F84F05000E0000216B68A8681B1A09
:20A92000E868C3189A4201D2140004E06868AC68041BE86804196868AA686B685B1E1A404D
:20A94000801A844201D2270005E06868AF686968491E0F40C71B0097B0462868A9686A6868
:20A96000521E114000EB0109009A4146484601F049FEB4EB070906EB070AD5F800B04A467C
:20A980005146584601F03EFEA8682018A8602000BDE8F28F2DE9F84F05000E000021AB681B
:20A9A000E8681B1A9A4201D2140002E0A868EC68041B6868EA686B685B1E1A40801A8442C2
:20A9C00001D2270005E06868EF686968491E0F40C71B00972868E9686A68521E114000EB12
:20A9E0000108B146009A4146484601F00BFEB4EB0709D5F800A006EB070B4A4651465846CA
:20AA000001F000FE2000BDE8F28FC2688A18C260704738B50500002D02D0681E054201D0CD
:20AA2000002020E01421012004F0A6FC0400002C01D1002017E040F60100854201D34FF4DC
:20AA4000006565600020E0600020A0600121606804F092FC20602068002801D1002002E0DC
:20AA600001202074200032BD70B5040005F0B8FE0500260016F1010F02D004480078361818
:20AA800005F0AEFE401BB042FAD370BD1C02002000B500BF130096469446103928BFA0E89B
:20AAA0000C50FAD85FEA417C28BF0CC048BF40F8042BC90728BF20F8022B48BF00F8012B1A
:20AAC00000BD30B4002513E050F8042BD30744BFA9F101039A18091F042942F8045BFAD25F
:20AAE00013468C0744BF15809B1CC90748BF1D7050F8041B0029E7D130BC704701B58B0784
:20AB00001AD1830724D1121F21D351F8043BA3F1013C2CEA030C1CF0803C04BF40F8043B26
:20AB2000F1E79CFA8CFCBCFA8CF1C1F118018B40CB4040F8043B13E0042A09D311F8013B92
:20AB4000521E00F8013B5BB18B07F7D1D9E7121D5AB111F8013B521E00F8013B03B1F8D18B
:20AB600011001CBF002200F005F801BD62F30F2262F31F42401810F0030308D0C91A1FD3D5
:20AB8000DB0748BF00F8012D28BF20F8022D130030B414461546103928BF20E93C00FAD885
:20ABA000490728BF20E90C0048BF40F8042D890028BF20F8022D48BF00F8012D30BC704752
:20ABC000C91818BF00F8012DCB0728BF00F8012D7047F0B40246106895681318506803EBCF
:20ABE0005004C0071DD54D441BE013F8017B05F8017B491EF9D1A0B1B60813F8011B06F05F
:20AC00000306032E08BF13F8016B01EB06214942801C294405D011F8016B05F8016B401E04
:20AC2000F9D1A3420ED013F8016B16F0030104BF13F8011BC91C30090F28DAD113F8010B05
:20AC40000F30D6E7F0BC02F10C00704770B50546AFF300802888810415D56E680024EA6899
:20AC600095F903003146914212D2521A05F0BEFD10F1010F1CBF00283618F0D10FE04DF6A4
:20AC8000FF70014029802846AFF30080002070BD0022002105F0AAFD10F1010F00D1012498
:20ACA0006868E860A861E861002C2988E7D041F4007129802846AFF300804FF0FF3070BD1C
:20ACC000F8B5A0B9AFF3008000250A4E08244FF0FF37306820B1FFF7B9FF002848BF3D4665
:20ACE000361D641EF5D1AFF300802846F2BDBDE8F240ABE77401002070B504000D00160030
:20AD00000020A0810020E0810020A4F854000020A4F850000020A4F852000020206094F81B
:20AD2000600050F0010084F860002561300080B2062190FBF1F0A0860020010009B20529EB
:20AD40000CDAA18E020012B2521C51432944020012B204EB8202D163401CEEE7DFF8300CF8
:20AD6000A065DFF8301CDFF8300C091A0909A4F85C10200000F010F80023A26DDFF81C1C02
:20AD8000200000F0DBFC0100200000F0BCFE0121200000F082F870BD0022110009B205290C
:20ADA0000EDADFF86C3C110009B253F82110002904D1110009B243F8210001E0521CECE79C
:20ADC00070470021080000B2052818DADFF8402C080000B252F8200000280ED0080000B29B
:20ADE00052F8200090F86000C0F34000C0B2002803D009B252F8210002E0491CE2E700204B
:20AE0000704738B504000D002800C0B2A16E884731BD70B504000D000026A06E002801D1B3
:20AE200000200AE02878002805D02878A16E88476D1C761CF6E7300080B270BD70B504003D
:20AE40000D000026A06E002801D1002024E0287800281FD028780D281CD028780A2819D060
:20AE6000300080B2242815DA2878A16E88476D1C761C300080B22428E9DB68780028E6D06C
:20AE80002E20A16E88472E20A16E88472E20A16E8847DCE7300080B270BD38B504000D00DE
:20AEA00094F8600010F0010000281ED02800C0B2002803D080A12000FFF7ABFF20684168E8
:20AEC0002000FFF7A6FF7DA12000FFF7A2FFA068002801D0A16800E079A12000FFF799FF30
:20AEE00078A12000FFF795FF05E0DFF8780C016B2000FFF78EFF31BD0CB470B5A0B0040019
:20AF00000D00002C0AD024AE33002A007F21684605F074FC69462000FFF77BFF20B070BC01
:20AF20005DF80CFB0A78002A09D04A7812F00F02082A04D00A7803681B781A420DD090F814
:20AF4000600010F00100002805D14878C0F30010C0B2002801D0002001E05FF0FF3040B233
:20AF6000704730B40200082000240C72002A11D012F00F042300441E20001D00EDB20A2DB2
:20AF800002DB13F1570501E013F13005E4B20D551209EBE7D0F1080040B230BC704730B433
:20AFA00002000B000B201100002A01D5544221000024DC7200290DD0401E0A2491FBF4F518
:20AFC00004FB151430340500EDB25C550A2491FBF4F1EFE7002A04D5401E2D240500EDB2C5
:20AFE0005C55002A04D1401E30240500EDB25C55D0F10B0040B230BC704710B40300002052
:20B00000020092B28A5C002A07D0020092B28A5C0400A4B21A55401CF2E700220400A4B25D
:20B020001A5580B210BC704730B4030000200024220092B29A5C002A0FD0220092B28A5C10
:20B04000002A0AD0220092B29A5C2500ADB24D5DAA4202D1401C641CEAE780B230BC704721
:20B0600038B5040000200100C9B2092907DA3021DFF8742B0300DBB2D154401CF3E76078A6
:20B0800010F00F00022801DA606814E0607810F00F00082801DA60680DE0607810F00F0052
:20B0A000092801DA606806E0DFF83C5B29006068FFF757FF280032BD0D0A00003A000000C3
:20B0C0002F00000024200000417811F00F01022901DAC0680EE0417811F00F01082901DA41
:20B0E000C06807E0417811F00F01092901DAC06800E0C06870472DE9F04104000D00280003
:20B10000FFF7AEFF01002000FFF783FE0600D6F11606300000B2012800DA0426202120009B
:20B12000FFF76FFE761E300000B20028F6D1687810F00F00022806DADFF8280A016C2000B8
:20B14000FFF767FE29E0687810F00F00082806DADFF8100A416C2000FFF75BFE1DE06878A2
:20B1600010F00F00092806DADFF8F809816C2000FFF74FFE11E0687810F00F000A2806DA95
:20B18000DFF8E009C16C2000FFF743FE05E0DFF8D409016D2000FFF73CFE89A7390020008B
:20B1A000FFF737FE5FF00708404640B200280FD42878012111FA08F1084201D0782100E029
:20B1C0002D21C9B22000FFF71CFEB8F10108EBE739002000FFF71DFE2800FFF775FF0100F5
:20B1E0002000FFF72BFEBEA12000FFF712FEBDE8F08170B50400A56DDFF8C00B816820008F
:20B20000FFF707FE0026300000B2B4F85C1088421CDA102016FB00F02844407810F00F00EF
:20B22000022811DA102016FB00F005EB00012000FFF778FE002807D1102016FB00F005EB2A
:20B2400000012000FFF757FF761CDCE770BD70B50400A56DDFF8640BC1682000FFF7D9FD69
:20B260000026300000B2B4F85C10884225DA102016FB00F02844407810F00F0002281ADB62
:20B28000102016FB00F02844407810F00F00082811DA102016FB00F005EB00012000FFF7F7
:20B2A00041FE002807D1102016FB00F005EB00012000FFF720FF761CD3E770BD70B5040056
:20B2C000A56DDFF8F80A01692000FFF7A2FD0026300000B2B4F85C10884225DA102016FB3A
:20B2E00000F02844407810F00F0008281ADB102016FB00F02844407810F00F00092811DA86
:20B30000102016FB00F005EB00012000FFF70AFE002807D1102016FB00F005EB00012000AB
:20B32000FFF7E9FE761CD3E770BD70B50400A56DDFF8880A41692000FFF76BFD0026300095
:20B3400000B2B4F85C10884225DA102016FB00F02844407810F00F0009281ADB102016FB8F
:20B3600000F02844407810F00F000A2811DA102016FB00F005EB00012000FFF7D3FD00285D
:20B3800007D1102016FB00F005EB00012000FFF7B2FE761CD3E770BD10B504002000FFF795
:20B3A00028FF10BD38B504000D002800451EC0B2002804D04BA12000FFF72BFDF5E731BDAE
:20B3C0002020000038B50400B4F90C00B4F90E50451B280000B2012805DB20212000FFF7DE
:20B3E00010FD6D1EF5E7A189C9B22000FFF7DAFF31BD70B504000D00A089A18E491E884298
:20B400000EDBDFF8B80941682000FFF702FD01212000FFF742FD21692000FFF7FAFC5EE0A2
:20B42000E089A189884212D1A089411CA181216980B20D5400202169A2898854E089401C91
:20B44000E0812900C9B22000FFF7DBFC47E0E089A189884243D2B4F90C10B4F90E00081ABB
:20B46000010009B201290DDB2169E28902FA80F22369E68906FA80F6334413F8013C8B548C
:20B48000401EEDE7E089411CE181216980B20D54A089401CA08100202169A2898854B4F931
:20B4A0000E00461E300000B2A189884208DA2069310009B2415C2000FFF7A3FC761CF1E731
:20B4C000B4F90C00B4F90E60861B300000B2012805DB08212000FFF794FC761EF5E770BDA0
:20B4E0000D0A000008200800F8B504000D0028005FF0FF3140B2884201D1012600E00026E5
:20B50000E089002803D1280040B2012809D0E089A189884206D128005FF0FF3140B2884213
:20B5200000D163E0E089A189884212D1280040B201280ED1E089401EE081A089401EA081C5
:20B5400000202169A289885401212000FFF72AFF4CE03100C9B20A0012B2A389E0891B1A69
:20B560009A420DDA2069E28902FA81F210442269E38903FA81F3D25C00F8012C491CEAE760
:20B58000A089401EA0813000C0B2002806D1E089401EE08108212000FFF733FC0020216922
:20B5A000A2898854B4F90E70380000B2A189884208DA2069390009B2415C2000FFF721FC4C
:20B5C0007F1CF1E720212000FFF71BFCB4F90C00B4F90E70C71B7F1C380000B2012805DB36
:20B5E00008212000FFF70DFC7F1EF5E7F1BD70B402000020012300210C0024B2082C07DA5A
:20B6000000240D002DB202EB85056C61491CF3E70021D18600242100958989B2A94247D27D
:20B620000100C9B200290BD111692500ADB2495D202934D011692500ADB2495D00292ED0CD
:20B6400011692500ADB2495D222905D1C0B2002801D0002000E001201900C9B201290FD1FB
:20B66000D18E08290ADAD18E4D1CD58615692600B6B2354489B202EB81014D6100210B002A
:20B6800011692500ADB2495D5C290FD111692500ADB229444978002908D0641C06E00021ED
:20B6A00015692600B6B2A95501210B00641CB2E770BC704770B5040000263000E18E80B237
:20B6C00088423AD2300080B204EB800040690078222811D10020310089B204EB81014969C7
:20B6E0000870300080B204EB80004069401C310089B204EB81014861300080B204EB8000A5
:20B70000406900F015FE0500300080B204EB80004069290089B2084410F8010C22280AD114
:20B72000300080B204EB80004069290089B20844002100F8011C761CBFE770BD2DE9F047F7
:20B7400004000D0016001F00B4F85C90A06D301AB9EB10195FF0000A5046494680B289B2FC
:20B7600088423BD2504680B200013044407810F00F00092809D0504680B2000106EB000129
:20B780002000FFF7CFFB002800D024E0504680B200013044FFF764FC8046380080B20028E2
:20B7A0000BD141462800FDF77FF8002813D11FFA8AFA5FEA0A10304411E03A0092B241461D
:20B7C000280005F039F8002805D11FFA8AFA5FEA0A10304403E01AF1010ABDE70020BDE847
:20B7E000F08770B504000D000026687810F00F00022809D025D304280FD009D3062810D097
:20B800000FD3072810D01CE0A8680068060018E0A868B0F90000060013E0A8680078060085
:20B820000FE0A86806000CE0A8684068002806D0A8680068A96849688847060000E000264C
:20B84000FFE7300070BD70B504000D0016006878C0F38010C0B2002806D0DFF86005016A1F
:20B860002000FFF7D6FA37E0687810F00F00022809D031D304280CD008D3062811D00BD305
:20B88000072815D028E0A868066025E0A868068022E0A86806701FE03100A868FFF7ADFB15
:20B8A0001AE0DFF81805C1692000FFF7B2FA13E0A868806800280ED0A8680068002806D047
:20B8C0003100A8680068AA689268904703E03000A96889688847FFE72900200000F001F8E0
:20B8E00070BDFEB504000D006846DFF8C81991E84C0080E84C0029002000FFF772FF0600C2
:20B9000069682000FFF785FAB4A12000FFF781FA687810F00F0005280DD1B1A73900200030
:20B92000FFF777FA31002000FFF773FA39002000FFF76FFA25E069463000FFF730FB694680
:20B9400040B24042084410F10B012000FFF761FADFF864192000FFF75CFA0020010009B20D
:20B960000B2906DA30216A4603001BB2D154401CF4E769463000FFF7F4FA69462000FFF7FE
:20B9800048FA98A12000FFF744FA3000FEBD0000008000086081000800800008ACAC010893
:20B9A000F8B506000F00FFF70CFA0500002D01D100202BE00023AA6D31002800FFF7BEFE55
:20B9C0000400002C07D1DFF8F403816A2800FFF720FA00201AE0607810F00F00022804DB64
:20B9E000607810F00F0008280BDB31002800FFF710FADFF8C803416A2800FFF70AFA002062
:20BA000004E03A0021002800FFF71DFFF2BD0000E410002070B504000D00002694F86000A2
:20BA200050F0020084F86000687810F00F0F13D12000FFF73FFE14F11401E08EAA68904742
:20BA400006006878C0F34010C0B2002834D13100200000F089F82FE0687810F00F00012875
:20BA600012D114F11403E28E2900200005F06DF806006878C0F34010C0B200281CD1310013
:20BA8000200000F071F817E0687810F00F00022809DB687810F00F00082804DA29002000F3
:20BAA000FFF71FFF08E0687810F00F00082803D12900200000F027F894F8600010F0FD0056
:20BAC00084F86000300070BD10B50400206881682069FCF7E9FE00280BD194F8600050F060
:20BAE000010084F860001F4801682000FFF791F904E01C48416B2000FFF78BF90020A0812A
:20BB00000020E08110BD70B504000D002560A86800280FD0A86800F00BFC00280AD0E08E8E
:20BB2000022805DBA169A868FCF7BEFE002801D0002000E0012094F8601060F3000184F84C
:20BB400060109E4EB16B2000FFF763F994F8600010F00100002803D031682000FFF759F912
:20BB600070BD0000340000207FB504000D006846DFF8481791E84C0080E84C00DFF8401774
:20BB80002000FFF746F969462800FFF708FA694640B24042084410F10B012000FFF739F9BD
:20BBA000DFF814172000FFF734F90020010009B20B2906DA30216A4603001BB2D154401CFE
:20BBC000F4E769462800FFF7CCF969462000FFF720F904A12000FFF71CF97FBD203D200091
:20BBE000220000000D0A00000811002010B504000020A4F85400B4F8500000280FD0B4F84B
:20BC00005200002801D1052001E0B4F85200216904EB8000806BFCF747FE002821D0216915
:20BC2000B4F8520004EB8000C06BFFF7E6F9002804D0B4F85200401CA4F85200B4F8500057
:20BC4000401CA4F85000B4F85000062802DB0520A4F85000B4F85200052802DB0020A4F8C0
:20BC6000520010BD38B504000D00280040B2012822DBB4F85200B4F85010884202D2B4F813
:20BC8000500001E0B4F85200B4F954104A1EA4F85420404209B2884220DBB4F85200B4F840
:20BCA0005010884202D2B4F8500001E0B4F852004042A4F8540011E0280040B200280CD525
:20BCC000B4F85400401CA4F85400B4F95400012804DB0020A4F8540027E026E02000FFF7DC
:20BCE00071FBB4F95400002804D10020A081A089E0811AE0B4F85200B4F954100818401D89
:20BD0000052190FBF1F201FB120004EB8000C16B2069FFF772F9A08180B2002805D0A08983
:20BD2000E08121692000FFF774F831BD38B504000D0094F8600010F0FB0084F860002900BE
:20BD4000C9B22000FFF755FB31BD38B50500A889002831D000202969AA89885495F860001A
:20BD600010F00100002824D02800FFF73FFF2800FFF73DFC0020E881E889A881E88E002832
:20BD80001AD0C6A12800FFF744F80023AA6D69692800FFF7D3FC0400002C04D021002800B2
:20BDA000FFF738FE08E0054881692800FFF731F802E02800FFF788FE31BD00003400002029
:20BDC00010B5040001212000FFF74CFF10BD10B504005FF0FF312000FFF744FF10BD10B517
:20BDE0000400E089A189884208D2E089411CE181216980B2095C2000FFF703F810BD10B51C
:20BE00000400E089002806D008212000FEF7F9FFE089401EE08110BD2DE9F84F0500AE8EEE
:20BE200000275FF00008A889002807D12800FFF7B3FA01212800FFF730F893E0A889002854
:20BE400000F0908000202969AA898854D5F858905FF0000A504600B2B5F85C1088424CDAC2
:20BE600010201AFB00F009EB00012800FFF75AF800283FD110201AFB00F04844FFF7F0F851
:20BE800001002869FFF7D0F8A98980B2884231D1404680B2002828D0404680B2012803D195
:20BEA0007EA12800FEF7B5FF380080B2000109EB00012800FFF71FF910201AFB00F048443B
:20BEC000FFF7CEF88346380080B200014844FFF7C7F85946FFF7A8F804002000310080B275
:20BEE00089B2884201D22600FFE7504680B2070018F101081AF1010AACE7404680B20028F4
:20BF000071D0404680B2012802D12800FFF75AFA404680B200280AD0380080B20001484409
:20BF2000FFF79EF801002869FFF767F8A881404680B202280CDB380080B2000109EB00013C
:20BF40002800FFF7D8F801212800FEF7A6FFAE8100202969AA898854A889E88129692800CB
:20BF6000FEF757FF04F03CFC00283CD0404680B2012832D195F86000C0F38000C0B2002878
:20BF80002BD004F02DFC6968401AC82825D22800FFF718FAB5F90C00010009B200290AD4CA
:20BFA0002969020012B2895C2A6903001BB21A445171401EF0E7DFF80C132869FFF71DF8FA
:20BFC000202029690871A889401DA881A889E88129692800FEF71DFF05E095F8600050F0E8
:20BFE000040085F86000BDE8F18F10B5040001212000FFF779FA10BD10B504005FF0FF31B2
:20C000002000FFF771FA10BD10B504002000FFF79CFE01212000FEF740FF10BD2DE9F041CF
:20C0200006000F00FEF7CDFE0400002C33D0012E03D12000FFF7B0F92DE0022E2BDB0023D0
:20C04000A26D79682000FFF779FB0500002D1DD09D48C16A2000FEF7DCFE2800FFF700F832
:20C0600001002000FEF7D5FE0FF2300841462000FEF7CFFE2800FFF727F801002000FEF7E2
:20C08000C8FE41462000FEF7C4FE04E08E4881692000FEF7BEFEBDE8F08100000D0A0000DA
:20C0A0002DE9F84304000D002800C0B2002800F08E8018260027A06B10F47F4F05D0002027
:20C0C00006007FF0FF00070011E0A06B10F47F0F04D0082006007D48070008E0A06B10F096
:20C0E0007F4F04D0102006005FF07F400700D4F858805FF00009484600B2B4F85C10884235
:20C1000053DA102019FB00F04044407810F00F00092847D1102019FB00F008EB00012000E2
:20C12000FEF700FF00283DD1102019FB00F0404440683840A16B884234D1FF21102019FBBE
:20C1400000F04044426811FA06F002402800C0B2B040824226D1A06B2A00D2B2B24010433B
:20C16000A063002005003000C0B2002809D0102019FB00F040444268B6F1080081400A42D6
:20C1800010D1102019FB00F040448068002806D02000102119FB01F1414489688847002064
:20C1A000A06302E019F10109A5E72800C0B2002806D00020A0632900C9B22000FFF7B6FDD2
:20C1C00004F00EFB002802D004F00AFB6060BDE8F18338B504002500686E002809D06846FB
:20C1E000696E8847002804D19DF800102800FFF757FF31BD10B5FEF7E4FD0400002C02D0F8
:20C200002000FFF75BF810BD10B5FEF7DAFD0400002C02D02000FEF7ECFF10BD10B5FEF7CE
:20C22000D0FD0400002C02D02000FFF710F810BD10B5FEF7C6FD0400002C02D02000FFF7AF
:20C2400074F810BD10B5FEF7BCFD0400002C04D01D48816B2000FEF7DCFD10BDF8B584B041
:20C2600005000E00FEF7ADFD0400002C18D0022D16DB7168200004F03AFC07003A00144913
:20C280002000FEF739FE68461249102200F0CAF90297331D6A1E6946200004F056FC06E0F8
:20C2A0000948416D2000FEF7B4FD5FF0FF3005B0F0BD0000A0AB0108B4AC0108ACAB0108BC
:20C2C000B8AB0108BCAC0108340000200000FFFFC4AC010820AB0108C9B202788A421AB156
:20C2E0001CBF10F8012FF9E718BF00207047000080B500B906A005490B681BB12222002117
:20C30000984701E004F0A5FC222002BD5C110020636F6E73747261696E742068616E646CCE
:20C3200065723A20626164206D6573736167650000F10103810704D010F8011B820781B170
:20C34000FAD10268A2F10131914311F0803104BF50F8042FF6E709BAB1FA81F100EBD100A6
:20C36000401CC01A70470000C9B2830706D0521E22D310F8013B9942F7D11FE0083A13D382
:20C3800002F1040241EA012141EA014150F8043B121F21BF4B40A3F1013C2CEA030C1CF0C5
:20C3A000803FF3D0C9B2001F083210F8013B521E28BF91EA030FF8D818BF0120401E704722
:20C3C000BBBBE1B1B2F5803F80F07E80022A1ED98C46B1FBF2F102FB11C31B0443EA10438D
:20C3E000B3FBF2FC02FB1C3380B240EA0343B3FBF2F002FB103240EA0C4000237047022A68
:20C4000005D98446B0FBF2F002FB10C270474AB105D100F0010249085FEA300070470022FA
:20C420000023704704F018BC0B000200002100207047904271EB030CF6D3B3F5803F2FD2E7
:20C44000F0B5B3FA83F7B1FA81F4A7F10F0E3D1B5340CEF1200602FA0EF2F3415340B5F102
:20C460000F0746D80F3C2C444140C4F12006A040F1414140B1FBF3F603FB1611A2FB06453C
:20C48000001BA94102D2761E8018594180EA010221FA0EF362FA0EF200215A403046F0BD3A
:20C4A00030B4B1FBF3FC03FB1C11A2FB0C45001BA94103D2ACF1010C8018594130BC0246FA
:20C4C0000B46604600217047B2F1807F65D3F0B5B2FA82F7B1FA81F4C7F10F063D1B22FA88
:20C4E00006F307F1110EF24120355A40B5F10F07B8D94140C4F12006A040F1414140B1FB22
:20C50000F3FC03FB1C11A2FB0C45001BA94103D2BCF1010C801859410F2F12D30F3FC90310
:20C5200041EA5041B1FBF3F603FB1611A2FB0645D4EBC030A94102D2761E8018594146EA3A
:20C54000CC3C07B34140C7F12006B840F1414140B1FBF3F603FB1611A2FB0645001BA94168
:20C5600002D2761E8018594180EA010221FA0EF3C7F1200462FA0EF20CFA07F05A402CFAA3
:20C5800004F13043F0BD80EA010221FA0EF3002162FA0EF260465A40F0BD8C46B1FBF2F132
:20C5A00002FB11C31B0243EA1063B3FBF2FC02FB1C331B024CEA002043EA1063B3FBF2FC56
:20C5C00002FB1C331B024CEA002043EA1063B3FBF2FC02FB1C331B024CEA002043EA106301
:20C5E000B3FBF2FC02FB1C324CEA00200023704741EC100B43EC112B20EE010B51EC100BFF
:20C600007047000062B38B0708D0521E11F8013B00F8013B00F024808B07F6D1830740F054
:20C62000208000BF103A07D330B4B1E83810103AA0E83810F9D230BC530724BFB1E80810F3
:20C64000A0E8081044BF51F8043B40F8043BD20724BF31F8022B20F8022B44BF0B780370E8
:20C660007047121F17D35B0009D151F8043B20F8023B1B0C121F20F8023BF6D20BE051F82D
:20C68000043B00F8013B1B0A20F8023B1B0C121F00F8013BF3D238BF121D521E24BF11F8DA
:20C6A000013B00F8013BF8D870470000024651EC100B10B5144600F00BF841EC100B226007
:20C6C00010BD000010B5144600F002F8226010BDC1F30A5343B14A0012F5001F28D2A3F231
:20C6E000FE32A1EB0251704750EA410C20D001F0004C31EA0C01B1FA81F204BFB0FA80F39A
:20C70000D2180B3AB2F120032CBF00FA03F1914041EA0C013EBFC2F1200C20FA0CF31943F1
:20C720009040524240F2FD33D21A01EB03517047002270474FF4001C1CEB410F94BF1CEB67
:20C74000430F09E041EA030C50EA4C0C52EA0C0C03D2994208BF9042704714BF8B4282421A
:20C76000704700004FF4001C1CEB410F94BF1CEB430F09E041EA030C50EA4C0C52EA0C0C97
:20C7800003D28B4208BF8242704714BF994290427047000041EC100B104600B500F004F83F
:20C7A00051EC100B00BD0000020030EE101B40F2FF7C37D41CEA115313D063456BD09B187E
:20C7C000634504D201EB025120EE101B704701F0004141EA0C51002041EC100BAFF3008068
:20C7E000704710EE100B50EA410054D0B2F57F7F08D202EB5C010905002041EC110B20EE7C
:20C80000010B70474FF0FE41002341EC113B20EE010BB2F57E7230EE101B4FEA410342EB97
:20C820005353CDE752421CEA115316D0634532D09A4204D2A1EB025120EE101B70475B1E16
:20C84000D21AA1EB035120EE101B372A0CD3002001F0004141EC100BC0E710EE100B50EAFF
:20C86000410018D0372AF2D2C2EB5C021105002041EC110BF1EE100A20F01F0121F4F85159
:20C88000E1EE101A20EE010BF1EE101AE1EE100A11F0080FA2D1704741EC100BBDEEC00B93
:20C8A00010EE100A704700EE100AB8EEC00B51EC100B704741EC100B43EC112B30EE410B04
:20C8C00051EC100B704741EC100B43EC112B80EE010B51EC100B704741EC100BBCEEC00B50
:20C8E00010EE100A704700EE100AB8EE400B51EC100B7047613807E005E0A0F161011A29C6
:20C9000001D20120704741381A288041C00F7047A0F10901052901D3202801D101207047DB
:20C9200000207047A0F141011A2938BF203070470148704701487047CC010020940100206A
:20C940002DE9F041DFF8FC46206810F00F0007280CD220680009000150F0070020602068F2
:20C9600010F00F00072801D00120D6E003F038FF0600DFF8D456286850F0010028602868B7
:20C98000400706D403F02CFF801B0328F7D30320C3E0DFF8B806016851F080410160DFF8CA
:20C9A000B07600203860DFF8AC06DFF8AC160860DFF8A8160860DFF8A806006804F04EF9EA
:20C9C000002801D00120A8E003F00AFF8046386810F0380F09D003F003FFB0EB080041F268
:20C9E00089318842F3D3032097E003F0F9FE06002968DFF87006014029602868800306D5CD
:20CA000003F0EEFE801B6528F7D3032085E003F0E7FE0700286830F08070286028688001A5
:20CA200006D503F0DDFEC01B0328F7D3032074E003F0D6FE0600286830F080602860286891
:20CA4000000106D503F0CCFE801B0328F7D3032063E003F0C5FE0700286830F08050286082
:20CA60002868800006D503F0BBFEC01B0328F7D3032052E00020DFF8F01508600020DFF89F
:20CA8000EC1508600020DFF8E8150860DFF8E405DFF8E4150860DFF8E405DFF8E4150860E1
:20CAA000DFF8E005DFF8E01508600021DFF8DC251160DFF8DC1508600021DFF8D825116086
:20CAC000DFF8D41508600020DFF8D0150860286830F4802028600020DFF8C41508605FF087
:20CAE000FF30DFF8C0150860DFF8BC05016851F480310160206810F00F0008280CD320686D
:20CB00000009000150F007002060206810F00F00072801D0012000E00020BDE8F0812DE960
:20CB2000F04104000D00002C01D101203DE1DFF81475386810F00F00A8420BD238680009F7
:20CB4000000128433860386810F00F00A84201D001202AE1207840070DD5DFF80C15086812
:20CB600010F070002269904205D20A6832F07002206902430A60207800070DD5DFF8EC147B
:20CB8000086810F070006269904205D20A6832F07002606902430A602078C0060DD5DFF8AC
:20CBA000CC14086810F4E060A269904205D20A6832F4E062A06902430A60207880060DD59B
:20CBC000DFF8AC14086810F07000E269904205D20A6832F07002E06902430A6020788007CD
:20CBE0000DD5DFF88414086810F00F00E268904205D20A6812091201E06802430A60207843
:20CC0000C0074AD5DFF860140A6832F47062A06802430A606068022806D1DFF82C0400688A
:20CC200080031CD40120C0E06068032806D1DFF818040068800112D40120B6E0606801288C
:20CC400006D1DFF804040068C00508D40120ACE0DFF8F4030068400701D40120A5E0DFF899
:20CC6000F083D8F80010C908C90060680143C8F8001003F0B5FD0600D8F8000010F0380038
:20CC80006168B0EBC10F08D003F0AAFD801B41F289318842F0D3032087E0207880070DD54E
:20CCA000DFF8C413E0680A6812F00F02904205D20A6812091201E06802430A60386810F019
:20CCC0000F0085420BD238680009000128433860386810F00F00A84201D0012065E020788C
:20CCE00040070DD5DFF8801320690A6812F07002904205D20A6832F07002206902430A604B
:20CD0000207800070DD5DFF8641360690A6812F07002904205D20A6832F0700260690243D8
:20CD20000A602078C0060DD5DFF84013A0690A6812F4E062904205D20A6832F4E062A069D0
:20CD400002430A60207880060DD5DFF82413E0690A6812F07002904205D20A6832F0700238
:20CD6000E06902430A6000F023F80700DFF83C13DFF8F4020268C2F303228A5C12F01F0269
:20CD8000D740006810F00F00085C10F01F003900C140DFF8C8020160DFF8BC020760DFF873
:20CDA000C002006803F05AFFC0B2BDE8F081000010B4DFF89C02006810F03800002806D09E
:20CDC000082813D0102814D0182815D0F9E0DFF878422068800606D5DFF878022468C4F318
:20CDE000C104E04001E0DFF86C02EBE0DFF8C002E8E0DFF8C002E5E0DFF87C02046814F0D9
:20CE0000030422000068C0F305100100DFF87002006810F001000300DFF870020068C0F39F
:20CE2000CC0000FB03F002EE100AB8EE422AB0EE421A002900F0C380002A03D0022A6FD05E
:20CE40004FD38CE0DFF800020468A40629D5DFF804420068C0F3C100C44002EE104AF0EE32
:20CE6000420AB8EE602A02EE901AF8EE622A82EE222ADFF814020068C005C00D02EE900AFD
:20CE8000F8EE622A9FED6B3A81EE033A72EE832AB7EE003A72EE832A22EE222AF0EE421AB4
:20CEA0001EE002EE101AB8EE422ADFED632A82EE822ADFF8D4010068C005C00D02EE900AA3
:20CEC000F8EE622A9FED5B3A81EE033A72EE832AB7EE003A72EE832A22EE222AF0EE421A84
:20CEE0005BE002EE101AB8EE422ADFED542A82EE822A65480068C005C00D02EE900AF8EE4E
:20CF0000622A9FED4C3A81EE033A72EE832AB7EE003A72EE832A22EE222AF0EE421A3CE01C
:20CF200002EE101AB8EE422ADFED452A82EE822A55480068C005C00D02EE900AF8EE622ADB
:20CF40009FED3C3A81EE033A72EE832AB7EE003A72EE832A22EE222AF0EE421A1DE002EEA7
:20CF6000101AB8EE422ADFED352A82EE822A46480068C005C00D02EE900AF8EE622A9FED1E
:20CF80002D3A81EE033A72EE832AB7EE003A72EE832A22EE222AF0EE421A3B480068C0F351
:20CFA0004620401C02EE100AB0EE420AB8EE402A81EE822ABCEEC22A12EE100A00E00020E0
:20CFC00000E03B4810BC704780B5FFF7F1FE01003648254A1368C3F30323C35C13F01F03C8
:20CFE000D9401E4B126812F00F02805C10F01F000A00C2401A6018480160186802BD80B56C
:20D00000FFF7E2FF2949194A1268C2F30212895C11F01F01C84002BD80B5FFF7D5FF2349E9
:20D02000124A1268C2F30222895C11F01F01C84002BD0000000000460024744C0024744A68
:20D0400020BCBE4B002000520044025804440258104402580090D0039000002094000020C4
:20D060008C00002045EDF6FF184402581C4402582044025800020202284402580000FF01E3
:20D080002C440258800201013044025834440258384402583C440258404402584444025832
:20D0A0006044025868440258D044025830AB010800093D0040787D012DE9F0470400002C21
:20D0C00001D1012025E32078C0076DD5DFF84806056815F03805DFF84406D0F80090102D2A
:20D0E00005D0182D0DD119F00300022809D1DFF830060068800357D56068002854D10120CE
:20D1000007E36068B0F5803F06D1DFF81406016851F48031016026E0606800280AD1DFF8C9
:20D120000006016831F480310160016831F48021016018E06068B0F5A02F0AD1DFF8E005EE
:20D14000016851F480210160016851F48031016009E0DFF8CC05016831F4803101600168C5
:20D1600031F480210160606800280ED003F038FB0600DFF8AC050068800315D403F030FB14
:20D18000801B6528F5D30320C3E203F029FB0600DFF88C050068800306D503F021FB801BE2
:20D1A0006528F5D30320B4E22078800740F19780DFF86405056815F03805DFF86005D0F807
:20D1C0000090002D04D0182D32D119F0030F2FD1DFF84C050068400704D5E068002801D169
:20D1E000012096E200F01EFB41F20401884215D22069402808D1DFF82C05016831F47C3197
:20D2000051F40031016012E0DFF81805016831F47C31226951EA0231016008E0DFF80405F4
:20D22000016831F0FE41226951EA0261016056E0E06800283DD0DFF8E8A4DAF8001031F082
:20D240001901E0680143CAF8001003F0C9FA0600DAF80000400706D403F0C2FA801B032832
:20D26000F6D3032055E200F0DDFA41F20401884215D22069402808D1DFF8A804016831F400
:20D280007C3151F40031016012E0DFF89804016831F47C31226951EA0231016008E0DFF851
:20D2A0008404016831F0FE41226951EA0261016015E0DFF86CA4DAF8000040084000CAF89B
:20D2C000000003F08DFA0600DAF80000400706D503F086FA801B0328F6D3032019E2207822
:20D2E000C00640F19680DFF83004056815F03805DFF82804D0F80090082D05D0182D33D1B9
:20D3000019F0030001282FD1DFF814040068C00504D5E069802801D00120FAE100F082FAB9
:20D3200041F20401884215D2206A202808D1DFF8F403016831F0F84151F08041016012E073
:20D34000DFF8E003016831F0F841226A51EA8261016008E0DFF8D003016831F07C51226AD0
:20D3600051EA0261016054E0E06900283BD0DFF8B0A3DAF8000050F08000CAF8000003F08D
:20D380002FFA0600DAF80000C00506D403F028FA801B0328F6D30320BBE100F043FA41F22A
:20D3A0000401884215D2206A202808D1DFF87403016831F0F84151F08041016012E0DFF8CF
:20D3C0006403016831F0F841226A51EA8261016008E0DFF85403016831F07C51226A51EAE4
:20D3E0000261016015E0DFF838A3DAF8000030F08000CAF8000003F0F3F90600DAF80000D7
:20D40000C00506D503F0ECF9801B0328F6D303207FE12078000726D56069002811D0C34D06
:20D42000286850F00100286003F0DAF906002868800718D403F0D4F9801B0328F7D3032051
:20D4400067E1BA4D286840084000286003F0C8F906002868800706D503F0C2F9801B0328BD
:20D46000F7D3032055E12078800626D5A069002811D0AB4D286850F48050286003F0B0F99E
:20D4800006002868800418D403F0AAF9801B0328F7D303203DE1A24D286830F48050286024
:20D4A00003F09EF906002868800406D503F098F9801B0328F7D303202BE12078400764D592
:20D4C000DFF86C92D9F8000050F48070C9F8000003F086F90500D9F80000C00506D403F0D7
:20D4E0007FF9401B6528F6D3032012E1A068012805D19048016851F00101016022E0A068F7
:20D50000002809D18B480168490849000160016831F00401016015E0A068052809D1854811
:20D52000016851F004010160016851F00101016008E080480168490849000160016831F030
:20D5400004010160A06800280FD003F049F9060078480068800718D403F042F9801B41F284
:20D5600089318842F4D30320D3E003F039F9060070480068800708D503F032F9801B41F2EF
:20D5800089318842F4D30320C3E0606A002800F0BF806148006810F03800182800F08A80D6
:20D5A000606A022874D1DFF87891D9F8000030F08070C9F8000003F013F90500D9F80000DB
:20D5C000800106D503F00CF9401B0328F6D303209FE052490A6858480240A06A0243E06A7E
:20D5E00052EA00120A60206B401EC005C00D616B491E490211F47E410843A16B491E0904EB
:20D6000011F4FE010843E16B491E090611F0FE4108434A4908604A49086840084000086080
:20D62000484802686FF3CF02A36C52EAC30202600A6832F00C02206C02430A600A6832F0DA
:20D640000202606C02430A60086850F480300860086850F400300860086850F48020086077
:20D66000086850F001000860D9F8000050F08070C9F8000003F0B4F80600D9F800008001D8
:20D6800046D403F0ADF8801B0328F6D3032040E0234D286830F08070286003F0A1F80600DC
:20D6A0002868800134D503F09BF8801B0328F7D303202EE0194800680700204800688046A3
:20D6C000606A012822D017F00300A16A88421DD1C7F30510E16A884218D15FEAC850C00D9D
:20D6E000216B491E884211D1C8F34620616B491E88420BD1C8F30640A16B491E884205D17D
:20D70000C8F30660E16B491E884201D0012000E00020BDE8F08700BF10440258284402582A
:20D7200000440258044402580C4402587444025800480258704402580CFCFFFF3044025869
:20D740002C4402583444025810B5032003F039FBFFF72EFB0400DFF8F000DFF8F0100A68EB
:20D76000C2F30322825C12F01F02D440096811F00F01405C10F01F002100C140DFF8D000B4
:20D780000160DFF8D0000460002003F067FA002801D0012002E003F053FB002010BD80B54A
:20D7A000DFF8B400DFF8B410016000210160DFF8B000DFF8B010016000210160DFF8A800E0
:20D7C00040F27121016000210160DFF8A000DFF8A010016000210160DFF8980018210160B8
:20D7E00000210160DFF89000DFF89010016000210160DFF88C004FF49B7101600021016051
:20D80000DFF88000DFF88010016000210160DFF87C00DFF87C1001600021016003F020FBC0
:20D82000002002BDDFF86C000068000C7047DFF8680000687047DFF8640000687047DFF80C
:20D84000600000687047000030AB01081844025894000020900000207C44025831500100AF
:20D860008044025823C0000A8444025888440258FF0728038C44025890440258FFC3FFE823
:20D8800094440258984402583330D7319C440258AADE20000010005C00E8F11F04E8F11F73
:20D8A00008E8F11F80B50E480168491C01600168B1F57A7F05D10021016008480168491C30
:20D8C0000160FCF760FF01BD7047C0B2012802D10348006801E00148006870474C11002039
:20D8E000481100202DE9F04F87B0DFF8A0040690DFF89C0405900698FEF71AFD06000598B9
:20D90000FEF716FD0700DFF88C84D8F80000002823D000200500D8F8000085421DD2DFF8A4
:20D9200078040068402101FB05F108440400201DFEF7FEFC864203D2201DFEF7F9FC06006A
:20D9400014F11C00FEF7F4FC874204D214F11C00FEF7EEFC07006D1CDDE7DFF84094484695
:20D96000FAF78EFFDFF83804FAF78AFFDFF834A45046FAF785FF4846FAF782FF05980290B3
:20D98000182001900097069B18223100DFF81804FAF776FF5046FAF773FF4846FAF770FFDB
:20D9A000DFF80804FAF76CFF5046FAF769FF5FF0000BD8F80000834521D2DFF8DC03006836
:20D9C000402101FB0BF1084404004846FAF758FFA06B0490606B039014F11C0002901820E0
:20D9E00001900097231D18223100DFF8C403FAF747FF5046FAF744FF1BF1010BD9E748464F
:20DA0000FAF73EFFDFF8AC03FAF73AFF5046FAF737FF07B0BDE8F08F2DE9F0410024DFF84E
:20DA200098532878002803D0DFF86803006860E0DFF86463DFF884033060DFF85873062022
:20DA400038605FF00008386880454DD23068402101FB08F108441C3003F059FA0400002C57
:20DA600016D14FF48872DFF85813DFF85803FAF707FF3068402101FB08F1084410F11C01BF
:20DA8000DFF84403FAF7FCFE61A0FAF7F9FE28E03068402101FB08F10844406BE169884293
:20DAA0001FDB40F21712DFF81813DFF82003FAF7E7FEE3693068402101FB08F10844426B0C
:20DAC0003068402101FB08F10844011DDFF80003FAF7D6FEDFF8CC02FAF7D2FE0020386031
:20DAE00004E018F10108AEE701202870FFF7FAFE3868BDE8F08170B50400DFF8BC02007808
:20DB0000002808D1DFF8CC22DFF8CC12DFF8CC02FAF7B6FEFEE700259E480068854213D23C
:20DB20009D4E3068402101FB05F10844011D2000FAF7BAFE002805D131684020454301EB71
:20DB4000050002E06D1CE7E7002070BD2DE9F04704000F00150098465FF000095FF0000A36
:20DB6000002C05D19E4A9F499C48FAF789FEFEE7002D05D19A4A58A19848FAF781FEFEE77D
:20DB8000A06B18EB070188420ED24FF4BF7294498E48FAF775FE9448FAF772FE8148FAF743
:20DBA0006FFE5FF0FF3031E014F11C0003F0AFF90600002E11D140F2851289498348FAF740
:20DBC0005FFE221D14F11C018848FAF759FE7548FAF756FE5FF0FF3018E042462900606B7B
:20DBE0003818B36A98478246BAF1000F0DD54FF4C6727B497548FAF743FE14F11C017C4861
:20DC0000FAF73EFE6748FAF73BFE5046BDE8F0870D0A00002DE9F04704000F0015009846E2
:20DC20005FF000095FF0000A002C05D1714A6D496A48FAF725FEFEE7002D05D16D4A26A194
:20DC40006648FAF71DFEFEE7A06B18EB070188420ED240F2A71267495C48FAF711FE664878
:20DC6000FAF70EFE4F48FAF70BFE5FF0FF3031E014F11C0003F04BF90600002E11D14FF4D6
:20DC8000D7725C495148FAF7FBFD221D14F11C015A48FAF7F5FD4348FAF7F2FD5FF0FF3045
:20DCA00018E042462900606B3818F36A98478246BAF1000F0DD540F2B5124E494348FAF7F4
:20DCC000DFFD14F11C014E48FAF7DAFD3548FAF7D7FD5046BDE8F087627566002DE9F84366
:20DCE00004000E0017005FF000085FF00009002C05D1444A3B493948FAF7C2FDFEE7A06B17
:20DD0000B91988420ED24FF4E7723E492F48FAF7B7FD3D48FAF7B4FD2248FAF7B1FD5FF0C9
:20DD2000FF3030E014F11C0003F0F1F80500002D11D140F2D51233492448FAF7A1FD221DC4
:20DD400014F11C013148FAF79BFD1648FAF798FD5FF0FF3017E03900606B30182A6B90478E
:20DD60008146B9F1000F0DD54FF4EE7225491748FAF786FD14F11C012548FAF781FD09480E
:20DD8000FAF77EFD4846BDE8F283000054AC01087CAB01083811002034110020ACA801080B
:20DDA000889901085CAC0108589E0108C8990108F4A00108089A01086E110020309101080E
:20DDC000C0A80108D4A80108389F010848A601081C960108E8A8010864AC010844A4010818
:20DDE000FCA801086CAC0108149C010858970108949D010810A901084C9C0108A497010873
:20DE0000849C010824A90108BC9C0108F0970108F49C010810B50400A26B00212000FFF76C
:20DE20005DFF10BD10B503F01DF80400002C02D4FFF7F2FD0400012C10DB124908780028E2
:20DE40000CD1012008701048FAF71AFD0F491048FAF716FD0F48FAF713FD10E0012C0EDADB
:20DE60000020084908703E220B490C48FAF708FD06490B48FAF704FD0648FAF701FD2000CA
:20DE800010BD00006C11002048A801082CAC01082C9D010834AC010864AB0108D8A50108E5
:20DEA000609D010800F5E0700268914203D343681A44914202D380680028F5D17047DFF8EF
:20DEC0006C17086890B94FF4805048604FF480324FF0FF30C86008610420DFF854378A60E7
:20DEE0004861C3F8BC01DFF84C0708600120704701F1080313F0070F0EBF0023C3F10803D2
:20DF000003F007031944D21A8161C26042F001034B60091D4FF0280C41F802C0DFF80C2738
:20DF20001369C36170472DE9FC4B074601F1080010F0070F0FBF8946C0F1080000F0070083
:20DF400001EB000902F1080111F0070F06D002F10800C0F1080000F0070002441546A5EB07
:20DF6000090009EB0306A0EB030B43F00303C9F80430AE4228BF02F06CFE2879C10758BF21
:20DF800002F067FEBBF1100F38BF02F062FEB869854208D1F9688B44C7F80CB0BE614BF050
:20DFA0000100706051E1786985420AD1B9688B44C7F808B07E614BF00100706046F80BB090
:20DFC00043E1686800F00301012940F0AC80C008C0000190C0081F2839D8AC68D5F80C802D
:20DFE0000090454508BF02F034FEA54208BF02F030FE68680099C008C000B0EBC10F18BF1B
:20E0000002F027FE009907F1280000EBC100844206D039698C42C0F08180E268AA427DD143
:20E02000A04506D100983968012383409943396076E0804506D0396988456FD3D8F8080015
:20E04000A8426BD1C4F80C80C8F8084068E0EC68D5F81880AC420CD0A8683969884223D30D
:20E06000C268AA4204BFA168A9421DD1C460A0601CE005F114010C6834B905F110010C68DE
:20E08000A4B101E011460C6804F114021068002802BF04F1100210680028F3D13869814244
:20E0A00002D300220A6001E002F0D3FDB8F1000F36D0E96907F5987000EB8100026895429B
:20E0C00008D10460A4B9E8697968012282409143796025E03869804508D3D8F81010A942C1
:20E0E00014BFC8F81440C8F8104001E002F0B1FDB4B139698C4211D3C4F81880286928B131
:20E10000884226BF2061846102F0A3FD686938B13969884202D36061846101E002F099FD4E
:20E1200001996D188B4469684908490069604BF0010070604FEADB0446F80BB01F2C23D85A
:20E1400007F1280000EBC4084546BBF1100F38BF02F07FFD386820FA04F1CA0705D40121B2
:20E1600001FA04F404433C6007E0D8F80800396988422CBF054602F06CFDC8F80860EE6097
:20E18000B560C6F80C8060E05FEA1B2008BF002123D0B0F5803F28BF1F211ED2A0F580727F
:20E1A000120C02F008029040A0F58051090C01F004018840A0F580431B0CC2F10E0203F007
:20E1C0000203521AD21A984002EBD032D01D2BFA00F101F0010101EB4201F161002307F585
:20E1E0009872736102EB810033617A6822FA01F3DC0707D4012303FA01F1114379600660E9
:20E20000B0611DE002681F291DBF4908C1F119010BFA01F1594600E002465068C008C00047
:20E22000584516D002F11003C80F03EB8003490018680028F0D13869834204D31E60B2618D
:20E24000F660B66001E002F004FD09F10800BDE8F68B396990688A4228BF8842F3D3C66053
:20E260009660B060F2600020B061EEE72DE9FE4F04468B46A5692E46904699463146FFF71E
:20E2800011FE0268416802EB010AAAF1270111F007000EBF0021C1F1080101F007010AEB02
:20E2A0000100A0F12F0706F110018F4238BF374607F11802002101920091A8F12802594690
:20E2C0002046FFF715FE07F1080010F0070F18BF02F0BFFC1B20786007F1080104F5E070D8
:20E2E00090E80C5081E80C50C0F800B0C0F80480C0F80C90816007220198009900E0001D54
:20E30000491C00F1080353454260F8D30129D8BF02F09FFCB74200F09580BF1B301D321DD5
:20E32000C15949084900D15147F0010070604FEAD70BF751BBF11F0F21D804EBCB0000F11E
:20E340002805A846102F38BF02F083FC206820FA0BF1CA0705D4012101FA0BF108432060CF
:20E3600006E0A868216988422CBF804602F071FCAE60C8F80C60C6F80880F5606FE0380ADD
:20E3800008BF002123D0B0F5803F28BF1F211ED2A0F58072120C02F008029040A0F5805150
:20E3A000090C01F004018840A0F580431B0CC2F10E0203F00203521AD21A984002EBD03231
:20E3C000D01D27FA00F101F0010101EB420104EB8102002302F59870F16173613361626804
:20E3E00022FA01F3DB0707D4012303FA01F1114361600660B0611DE002681F291DBF4908D5
:20E40000C1F1190107FA01F1394600E002465068C008C000B84216D002F11003C80F03EBAB
:20E420008003490018680028F0D12069834204D31E60B261F660B56011E003B0BDE8F04FFE
:20E4400002F007BC0BE0216990688A4228BF8842F3D3C6609560B060F2600020B06103B0F6
:20E46000BDE8F08F2DE9F041704F05463868884608B9FFF724FDB96801EB08002F30491E06
:20E4800020EA010188457DD205F5D876B06828B1326889188A4275D2884273D302F07CFD52
:20E4A00001001CBF0C6811F1010F6BD03068201805F5D87230605368984238BF1846706061
:20E4C000A86960BB286908B1814200D22961316174610020F0614FF0FF303A686A62286269
